{
  "_format": "hh-sol-artifact-1",
  "contractName": "Avatar",
  "sourceName": "contracts/Avatar.sol",
  "abi": [
    {
      "inputs": [
        {
          "internalType": "address",
          "name": "neonTokenAddress",
          "type": "address"
        }
      ],
      "stateMutability": "nonpayable",
      "type": "constructor"
    },
    {
      "anonymous": false,
      "inputs": [
        {
          "indexed": true,
          "internalType": "address",
          "name": "owner",
          "type": "address"
        },
        {
          "indexed": true,
          "internalType": "address",
          "name": "approved",
          "type": "address"
        },
        {
          "indexed": true,
          "internalType": "uint256",
          "name": "tokenId",
          "type": "uint256"
        }
      ],
      "name": "Approval",
      "type": "event"
    },
    {
      "anonymous": false,
      "inputs": [
        {
          "indexed": true,
          "internalType": "address",
          "name": "owner",
          "type": "address"
        },
        {
          "indexed": true,
          "internalType": "address",
          "name": "operator",
          "type": "address"
        },
        {
          "indexed": false,
          "internalType": "bool",
          "name": "approved",
          "type": "bool"
        }
      ],
      "name": "ApprovalForAll",
      "type": "event"
    },
    {
      "anonymous": false,
      "inputs": [
        {
          "indexed": true,
          "internalType": "address",
          "name": "from",
          "type": "address"
        },
        {
          "indexed": true,
          "internalType": "address",
          "name": "to",
          "type": "address"
        },
        {
          "indexed": true,
          "internalType": "uint256",
          "name": "tokenId",
          "type": "uint256"
        }
      ],
      "name": "Transfer",
      "type": "event"
    },
    {
      "inputs": [
        {
          "internalType": "address",
          "name": "to",
          "type": "address"
        },
        {
          "internalType": "uint256",
          "name": "tokenId",
          "type": "uint256"
        }
      ],
      "name": "approve",
      "outputs": [],
      "stateMutability": "nonpayable",
      "type": "function"
    },
    {
      "inputs": [
        {
          "internalType": "uint256",
          "name": "",
          "type": "uint256"
        }
      ],
      "name": "avatarDetails",
      "outputs": [
        {
          "internalType": "uint256",
          "name": "tokenId",
          "type": "uint256"
        },
        {
          "internalType": "string",
          "name": "name",
          "type": "string"
        }
      ],
      "stateMutability": "view",
      "type": "function"
    },
    {
      "inputs": [
        {
          "internalType": "address",
          "name": "owner",
          "type": "address"
        }
      ],
      "name": "balanceOf",
      "outputs": [
        {
          "internalType": "uint256",
          "name": "",
          "type": "uint256"
        }
      ],
      "stateMutability": "view",
      "type": "function"
    },
    {
      "inputs": [
        {
          "internalType": "string",
          "name": "name",
          "type": "string"
        }
      ],
      "name": "generateCharacter",
      "outputs": [],
      "stateMutability": "nonpayable",
      "type": "function"
    },
    {
      "inputs": [
        {
          "internalType": "uint256",
          "name": "tokenId",
          "type": "uint256"
        }
      ],
      "name": "getApproved",
      "outputs": [
        {
          "internalType": "address",
          "name": "",
          "type": "address"
        }
      ],
      "stateMutability": "view",
      "type": "function"
    },
    {
      "inputs": [
        {
          "internalType": "uint256",
          "name": "tokenId",
          "type": "uint256"
        }
      ],
      "name": "getAvatarDetails",
      "outputs": [
        {
          "components": [
            {
              "internalType": "uint256",
              "name": "tokenId",
              "type": "uint256"
            },
            {
              "internalType": "string",
              "name": "name",
              "type": "string"
            }
          ],
          "internalType": "struct Avatar.AvatarDetails",
          "name": "",
          "type": "tuple"
        }
      ],
      "stateMutability": "view",
      "type": "function"
    },
    {
      "inputs": [
        {
          "internalType": "address",
          "name": "owner",
          "type": "address"
        },
        {
          "internalType": "address",
          "name": "operator",
          "type": "address"
        }
      ],
      "name": "isApprovedForAll",
      "outputs": [
        {
          "internalType": "bool",
          "name": "",
          "type": "bool"
        }
      ],
      "stateMutability": "view",
      "type": "function"
    },
    {
      "inputs": [],
      "name": "name",
      "outputs": [
        {
          "internalType": "string",
          "name": "",
          "type": "string"
        }
      ],
      "stateMutability": "view",
      "type": "function"
    },
    {
      "inputs": [
        {
          "internalType": "uint256",
          "name": "tokenId",
          "type": "uint256"
        }
      ],
      "name": "ownerOf",
      "outputs": [
        {
          "internalType": "address",
          "name": "",
          "type": "address"
        }
      ],
      "stateMutability": "view",
      "type": "function"
    },
    {
      "inputs": [
        {
          "internalType": "address",
          "name": "from",
          "type": "address"
        },
        {
          "internalType": "address",
          "name": "to",
          "type": "address"
        },
        {
          "internalType": "uint256",
          "name": "tokenId",
          "type": "uint256"
        }
      ],
      "name": "safeTransferFrom",
      "outputs": [],
      "stateMutability": "nonpayable",
      "type": "function"
    },
    {
      "inputs": [
        {
          "internalType": "address",
          "name": "from",
          "type": "address"
        },
        {
          "internalType": "address",
          "name": "to",
          "type": "address"
        },
        {
          "internalType": "uint256",
          "name": "tokenId",
          "type": "uint256"
        },
        {
          "internalType": "bytes",
          "name": "_data",
          "type": "bytes"
        }
      ],
      "name": "safeTransferFrom",
      "outputs": [],
      "stateMutability": "nonpayable",
      "type": "function"
    },
    {
      "inputs": [
        {
          "internalType": "address",
          "name": "operator",
          "type": "address"
        },
        {
          "internalType": "bool",
          "name": "approved",
          "type": "bool"
        }
      ],
      "name": "setApprovalForAll",
      "outputs": [],
      "stateMutability": "nonpayable",
      "type": "function"
    },
    {
      "inputs": [
        {
          "internalType": "bytes4",
          "name": "interfaceId",
          "type": "bytes4"
        }
      ],
      "name": "supportsInterface",
      "outputs": [
        {
          "internalType": "bool",
          "name": "",
          "type": "bool"
        }
      ],
      "stateMutability": "view",
      "type": "function"
    },
    {
      "inputs": [],
      "name": "symbol",
      "outputs": [
        {
          "internalType": "string",
          "name": "",
          "type": "string"
        }
      ],
      "stateMutability": "view",
      "type": "function"
    },
    {
      "inputs": [
        {
          "internalType": "uint256",
          "name": "index",
          "type": "uint256"
        }
      ],
      "name": "tokenByIndex",
      "outputs": [
        {
          "internalType": "uint256",
          "name": "",
          "type": "uint256"
        }
      ],
      "stateMutability": "view",
      "type": "function"
    },
    {
      "inputs": [
        {
          "internalType": "address",
          "name": "owner",
          "type": "address"
        },
        {
          "internalType": "uint256",
          "name": "index",
          "type": "uint256"
        }
      ],
      "name": "tokenOfOwnerByIndex",
      "outputs": [
        {
          "internalType": "uint256",
          "name": "",
          "type": "uint256"
        }
      ],
      "stateMutability": "view",
      "type": "function"
    },
    {
      "inputs": [
        {
          "internalType": "uint256",
          "name": "tokenId",
          "type": "uint256"
        }
      ],
      "name": "tokenURI",
      "outputs": [
        {
          "internalType": "string",
          "name": "",
          "type": "string"
        }
      ],
      "stateMutability": "view",
      "type": "function"
    },
    {
      "inputs": [],
      "name": "totalSupply",
      "outputs": [
        {
          "internalType": "uint256",
          "name": "",
          "type": "uint256"
        }
      ],
      "stateMutability": "view",
      "type": "function"
    },
    {
      "inputs": [
        {
          "internalType": "address",
          "name": "from",
          "type": "address"
        },
        {
          "internalType": "address",
          "name": "to",
          "type": "address"
        },
        {
          "internalType": "uint256",
          "name": "tokenId",
          "type": "uint256"
        }
      ],
      "name": "transferFrom",
      "outputs": [],
      "stateMutability": "nonpayable",
      "type": "function"
    }
  ],
  "bytecode": "0x60806040526000600b553480156200001657600080fd5b50604051620038aa380380620038aa83398181016040528101906200003c9190620001eb565b6040518060400160405280600681526020017f41766174617200000000000000000000000000000000000000000000000000008152506040518060400160405280600a81526020017f4e454f4e417661746172000000000000000000000000000000000000000000008152508160009080519060200190620000c092919062000124565b508060019080519060200190620000d992919062000124565b50505080600a60006101000a81548173ffffffffffffffffffffffffffffffffffffffff021916908373ffffffffffffffffffffffffffffffffffffffff16021790555050620002ca565b82805462000132906200024b565b90600052602060002090601f016020900481019282620001565760008555620001a2565b82601f106200017157805160ff1916838001178555620001a2565b82800160010185558215620001a2579182015b82811115620001a157825182559160200191906001019062000184565b5b509050620001b19190620001b5565b5090565b5b80821115620001d0576000816000905550600101620001b6565b5090565b600081519050620001e581620002b0565b92915050565b600060208284031215620001fe57600080fd5b60006200020e84828501620001d4565b91505092915050565b600062000224826200022b565b9050919050565b600073ffffffffffffffffffffffffffffffffffffffff82169050919050565b600060028204905060018216806200026457607f821691505b602082108114156200027b576200027a62000281565b5b50919050565b7f4e487b7100000000000000000000000000000000000000000000000000000000600052602260045260246000fd5b620002bb8162000217565b8114620002c757600080fd5b50565b6135d080620002da6000396000f3fe608060405234801561001057600080fd5b50600436106101215760003560e01c806342842e0e116100ad578063a22cb46511610071578063a22cb46514610341578063b88d4fde1461035d578063c87b56dd14610379578063d9d2cffa146103a9578063e985e9c5146103d957610121565b806342842e0e146102775780634f6ccce7146102935780636352211e146102c357806370a08231146102f357806395d89b411461032357610121565b806318160ddd116100f457806318160ddd146101c057806323b872dd146101de578063288d3d8d146101fa5780632c82c809146102165780632f745c591461024757610121565b806301ffc9a71461012657806306fdde0314610156578063081812fc14610174578063095ea7b3146101a4575b600080fd5b610140600480360381019061013b919061246a565b610409565b60405161014d919061299f565b60405180910390f35b61015e610483565b60405161016b91906129ba565b60405180910390f35b61018e600480360381019061018991906124fd565b610515565b60405161019b9190612901565b60405180910390f35b6101be60048036038101906101b99190612405565b61059a565b005b6101c86106b2565b6040516101d59190612c1e565b60405180910390f35b6101f860048036038101906101f391906122ff565b6106bf565b005b610214600480360381019061020f91906124bc565b61071f565b005b610230600480360381019061022b91906124fd565b61089a565b60405161023e929190612c39565b60405180910390f35b610261600480360381019061025c9190612405565b610946565b60405161026e9190612c1e565b60405180910390f35b610291600480360381019061028c91906122ff565b6109eb565b005b6102ad60048036038101906102a891906124fd565b610a0b565b6040516102ba9190612c1e565b60405180910390f35b6102dd60048036038101906102d891906124fd565b610aa2565b6040516102ea9190612901565b60405180910390f35b61030d6004803603810190610308919061229a565b610b54565b60405161031a9190612c1e565b60405180910390f35b61032b610c0c565b60405161033891906129ba565b60405180910390f35b61035b600480360381019061035691906123c9565b610c9e565b005b6103776004803603810190610372919061234e565b610cb4565b005b610393600480360381019061038e91906124fd565b610d16565b6040516103a091906129ba565b60405180910390f35b6103c360048036038101906103be91906124fd565b610dbd565b6040516103d09190612bfc565b60405180910390f35b6103f360048036038101906103ee91906122c3565b610e86565b604051610400919061299f565b60405180910390f35b60007f780e9d63000000000000000000000000000000000000000000000000000000007bffffffffffffffffffffffffffffffffffffffffffffffffffffffff1916827bffffffffffffffffffffffffffffffffffffffffffffffffffffffff1916148061047c575061047b82610f1a565b5b9050919050565b60606000805461049290612ec7565b80601f01602080910402602001604051908101604052809291908181526020018280546104be90612ec7565b801561050b5780601f106104e05761010080835404028352916020019161050b565b820191906000526020600020905b8154815290600101906020018083116104ee57829003601f168201915b5050505050905090565b600061052082610ffc565b61055f576040517f08c379a000000000000000000000000000000000000000000000000000000000815260040161055690612b3c565b60405180910390fd5b6004600083815260200190815260200160002060009054906101000a900473ffffffffffffffffffffffffffffffffffffffff169050919050565b60006105a582610aa2565b90508073ffffffffffffffffffffffffffffffffffffffff168373ffffffffffffffffffffffffffffffffffffffff161415610616576040517f08c379a000000000000000000000000000000000000000000000000000000000815260040161060d90612b7c565b60405180910390fd5b8073ffffffffffffffffffffffffffffffffffffffff16610635611068565b73ffffffffffffffffffffffffffffffffffffffff16148061066457506106638161065e611068565b610e86565b5b6106a3576040517f08c379a000000000000000000000000000000000000000000000000000000000815260040161069a90612abc565b60405180910390fd5b6106ad8383611070565b505050565b6000600880549050905090565b6106d06106ca611068565b82611129565b61070f576040517f08c379a000000000000000000000000000000000000000000000000000000000815260040161070690612b9c565b60405180910390fd5b61071a838383611207565b505050565b6000600a60009054906101000a900473ffffffffffffffffffffffffffffffffffffffff1673ffffffffffffffffffffffffffffffffffffffff166323b872dd3330670de0b6b3a76400006040518463ffffffff1660e01b81526004016107889392919061291c565b602060405180830381600087803b1580156107a257600080fd5b505af11580156107b6573d6000803e3d6000fd5b505050506040513d601f19601f820116820180604052508101906107da9190612441565b90508061081c576040517f08c379a000000000000000000000000000000000000000000000000000000000815260040161081390612bdc565b60405180910390fd5b6040518060400160405280600b54815260200183815250600c6000600b54815260200190815260200160002060008201518160000155602082015181600101908051906020019061086e92919061208f565b5090505061087e33600b5461146e565b600b600081548092919061089190612f2a565b91905055505050565b600c6020528060005260406000206000915090508060000154908060010180546108c390612ec7565b80601f01602080910402602001604051908101604052809291908181526020018280546108ef90612ec7565b801561093c5780601f106109115761010080835404028352916020019161093c565b820191906000526020600020905b81548152906001019060200180831161091f57829003601f168201915b5050505050905082565b600061095183610b54565b8210610992576040517f08c379a0000000000000000000000000000000000000000000000000000000008152600401610989906129dc565b60405180910390fd5b600660008473ffffffffffffffffffffffffffffffffffffffff1673ffffffffffffffffffffffffffffffffffffffff168152602001908152602001600020600083815260200190815260200160002054905092915050565b610a0683838360405180602001604052806000815250610cb4565b505050565b6000610a156106b2565b8210610a56576040517f08c379a0000000000000000000000000000000000000000000000000000000008152600401610a4d90612bbc565b60405180910390fd5b60088281548110610a90577f4e487b7100000000000000000000000000000000000000000000000000000000600052603260045260246000fd5b90600052602060002001549050919050565b6000806002600084815260200190815260200160002060009054906101000a900473ffffffffffffffffffffffffffffffffffffffff169050600073ffffffffffffffffffffffffffffffffffffffff168173ffffffffffffffffffffffffffffffffffffffff161415610b4b576040517f08c379a0000000000000000000000000000000000000000000000000000000008152600401610b4290612afc565b60405180910390fd5b80915050919050565b60008073ffffffffffffffffffffffffffffffffffffffff168273ffffffffffffffffffffffffffffffffffffffff161415610bc5576040517f08c379a0000000000000000000000000000000000000000000000000000000008152600401610bbc90612adc565b60405180910390fd5b600360008373ffffffffffffffffffffffffffffffffffffffff1673ffffffffffffffffffffffffffffffffffffffff168152602001908152602001600020549050919050565b606060018054610c1b90612ec7565b80601f0160208091040260200160405190810160405280929190818152602001828054610c4790612ec7565b8015610c945780601f10610c6957610100808354040283529160200191610c94565b820191906000526020600020905b815481529060010190602001808311610c7757829003601f168201915b5050505050905090565b610cb0610ca9611068565b8383611648565b5050565b610cc5610cbf611068565b83611129565b610d04576040517f08c379a0000000000000000000000000000000000000000000000000000000008152600401610cfb90612b9c565b60405180910390fd5b610d10848484846117b5565b50505050565b6060610d2182610ffc565b610d60576040517f08c379a0000000000000000000000000000000000000000000000000000000008152600401610d5790612b5c565b60405180910390fd5b6000610d6a611811565b90506000815111610d8a5760405180602001604052806000815250610db5565b80610d9484611828565b604051602001610da59291906128dd565b6040516020818303038152906040525b915050919050565b610dc5612115565b600c600083815260200190815260200160002060405180604001604052908160008201548152602001600182018054610dfd90612ec7565b80601f0160208091040260200160405190810160405280929190818152602001828054610e2990612ec7565b8015610e765780601f10610e4b57610100808354040283529160200191610e76565b820191906000526020600020905b815481529060010190602001808311610e5957829003601f168201915b5050505050815250509050919050565b6000600560008473ffffffffffffffffffffffffffffffffffffffff1673ffffffffffffffffffffffffffffffffffffffff16815260200190815260200160002060008373ffffffffffffffffffffffffffffffffffffffff1673ffffffffffffffffffffffffffffffffffffffff16815260200190815260200160002060009054906101000a900460ff16905092915050565b60007f80ac58cd000000000000000000000000000000000000000000000000000000007bffffffffffffffffffffffffffffffffffffffffffffffffffffffff1916827bffffffffffffffffffffffffffffffffffffffffffffffffffffffff19161480610fe557507f5b5e139f000000000000000000000000000000000000000000000000000000007bffffffffffffffffffffffffffffffffffffffffffffffffffffffff1916827bffffffffffffffffffffffffffffffffffffffffffffffffffffffff1916145b80610ff55750610ff4826119d5565b5b9050919050565b60008073ffffffffffffffffffffffffffffffffffffffff166002600084815260200190815260200160002060009054906101000a900473ffffffffffffffffffffffffffffffffffffffff1673ffffffffffffffffffffffffffffffffffffffff1614159050919050565b600033905090565b816004600083815260200190815260200160002060006101000a81548173ffffffffffffffffffffffffffffffffffffffff021916908373ffffffffffffffffffffffffffffffffffffffff160217905550808273ffffffffffffffffffffffffffffffffffffffff166110e383610aa2565b73ffffffffffffffffffffffffffffffffffffffff167f8c5be1e5ebec7d5bd14f71427d1e84f3dd0314c0f7b2291e5b200ac8c7c3b92560405160405180910390a45050565b600061113482610ffc565b611173576040517f08c379a000000000000000000000000000000000000000000000000000000000815260040161116a90612a9c565b60405180910390fd5b600061117e83610aa2565b90508073ffffffffffffffffffffffffffffffffffffffff168473ffffffffffffffffffffffffffffffffffffffff1614806111c057506111bf8185610e86565b5b806111fe57508373ffffffffffffffffffffffffffffffffffffffff166111e684610515565b73ffffffffffffffffffffffffffffffffffffffff16145b91505092915050565b8273ffffffffffffffffffffffffffffffffffffffff1661122782610aa2565b73ffffffffffffffffffffffffffffffffffffffff161461127d576040517f08c379a000000000000000000000000000000000000000000000000000000000815260040161127490612a1c565b60405180910390fd5b600073ffffffffffffffffffffffffffffffffffffffff168273ffffffffffffffffffffffffffffffffffffffff1614156112ed576040517f08c379a00000000000000000000000000000000000000000000000000000000081526004016112e490612a5c565b60405180910390fd5b6112f8838383611a3f565b611303600082611070565b6001600360008573ffffffffffffffffffffffffffffffffffffffff1673ffffffffffffffffffffffffffffffffffffffff16815260200190815260200160002060008282546113539190612dcb565b925050819055506001600360008473ffffffffffffffffffffffffffffffffffffffff1673ffffffffffffffffffffffffffffffffffffffff16815260200190815260200160002060008282546113aa9190612d44565b92505081905550816002600083815260200190815260200160002060006101000a81548173ffffffffffffffffffffffffffffffffffffffff021916908373ffffffffffffffffffffffffffffffffffffffff160217905550808273ffffffffffffffffffffffffffffffffffffffff168473ffffffffffffffffffffffffffffffffffffffff167fddf252ad1be2c89b69c2b068fc378daa952ba7f163c4a11628f55a4df523b3ef60405160405180910390a4611469838383611b53565b505050565b600073ffffffffffffffffffffffffffffffffffffffff168273ffffffffffffffffffffffffffffffffffffffff1614156114de576040517f08c379a00000000000000000000000000000000000000000000000000000000081526004016114d590612b1c565b60405180910390fd5b6114e781610ffc565b15611527576040517f08c379a000000000000000000000000000000000000000000000000000000000815260040161151e90612a3c565b60405180910390fd5b61153360008383611a3f565b6001600360008473ffffffffffffffffffffffffffffffffffffffff1673ffffffffffffffffffffffffffffffffffffffff16815260200190815260200160002060008282546115839190612d44565b92505081905550816002600083815260200190815260200160002060006101000a81548173ffffffffffffffffffffffffffffffffffffffff021916908373ffffffffffffffffffffffffffffffffffffffff160217905550808273ffffffffffffffffffffffffffffffffffffffff16600073ffffffffffffffffffffffffffffffffffffffff167fddf252ad1be2c89b69c2b068fc378daa952ba7f163c4a11628f55a4df523b3ef60405160405180910390a461164460008383611b53565b5050565b8173ffffffffffffffffffffffffffffffffffffffff168373ffffffffffffffffffffffffffffffffffffffff1614156116b7576040517f08c379a00000000000000000000000000000000000000000000000000000000081526004016116ae90612a7c565b60405180910390fd5b80600560008573ffffffffffffffffffffffffffffffffffffffff1673ffffffffffffffffffffffffffffffffffffffff16815260200190815260200160002060008473ffffffffffffffffffffffffffffffffffffffff1673ffffffffffffffffffffffffffffffffffffffff16815260200190815260200160002060006101000a81548160ff0219169083151502179055508173ffffffffffffffffffffffffffffffffffffffff168373ffffffffffffffffffffffffffffffffffffffff167f17307eab39ab6107e8899845ad3d59bd9653f200f220920489ca2b5937696c31836040516117a8919061299f565b60405180910390a3505050565b6117c0848484611207565b6117cc84848484611b58565b61180b576040517f08c379a0000000000000000000000000000000000000000000000000000000008152600401611802906129fc565b60405180910390fd5b50505050565b606060405180602001604052806000815250905090565b60606000821415611870576040518060400160405280600181526020017f300000000000000000000000000000000000000000000000000000000000000081525090506119d0565b600082905060005b600082146118a257808061188b90612f2a565b915050600a8261189b9190612d9a565b9150611878565b60008167ffffffffffffffff8111156118e4577f4e487b7100000000000000000000000000000000000000000000000000000000600052604160045260246000fd5b6040519080825280601f01601f1916602001820160405280156119165781602001600182028036833780820191505090505b5090505b600085146119c95760018261192f9190612dcb565b9150600a8561193e9190612f73565b603061194a9190612d44565b60f81b818381518110611986577f4e487b7100000000000000000000000000000000000000000000000000000000600052603260045260246000fd5b60200101907effffffffffffffffffffffffffffffffffffffffffffffffffffffffffffff1916908160001a905350600a856119c29190612d9a565b945061191a565b8093505050505b919050565b60007f01ffc9a7000000000000000000000000000000000000000000000000000000007bffffffffffffffffffffffffffffffffffffffffffffffffffffffff1916827bffffffffffffffffffffffffffffffffffffffffffffffffffffffff1916149050919050565b611a4a838383611cef565b600073ffffffffffffffffffffffffffffffffffffffff168373ffffffffffffffffffffffffffffffffffffffff161415611a8d57611a8881611cf4565b611acc565b8173ffffffffffffffffffffffffffffffffffffffff168373ffffffffffffffffffffffffffffffffffffffff1614611acb57611aca8382611d3d565b5b5b600073ffffffffffffffffffffffffffffffffffffffff168273ffffffffffffffffffffffffffffffffffffffff161415611b0f57611b0a81611eaa565b611b4e565b8273ffffffffffffffffffffffffffffffffffffffff168273ffffffffffffffffffffffffffffffffffffffff1614611b4d57611b4c8282611fed565b5b5b505050565b505050565b6000611b798473ffffffffffffffffffffffffffffffffffffffff1661206c565b15611ce2578373ffffffffffffffffffffffffffffffffffffffff1663150b7a02611ba2611068565b8786866040518563ffffffff1660e01b8152600401611bc49493929190612953565b602060405180830381600087803b158015611bde57600080fd5b505af1925050508015611c0f57506040513d601f19601f82011682018060405250810190611c0c9190612493565b60015b611c92573d8060008114611c3f576040519150601f19603f3d011682016040523d82523d6000602084013e611c44565b606091505b50600081511415611c8a576040517f08c379a0000000000000000000000000000000000000000000000000000000008152600401611c81906129fc565b60405180910390fd5b805181602001fd5b63150b7a0260e01b7bffffffffffffffffffffffffffffffffffffffffffffffffffffffff1916817bffffffffffffffffffffffffffffffffffffffffffffffffffffffff191614915050611ce7565b600190505b949350505050565b505050565b6008805490506009600083815260200190815260200160002081905550600881908060018154018082558091505060019003906000526020600020016000909190919091505550565b60006001611d4a84610b54565b611d549190612dcb565b9050600060076000848152602001908152602001600020549050818114611e39576000600660008673ffffffffffffffffffffffffffffffffffffffff1673ffffffffffffffffffffffffffffffffffffffff168152602001908152602001600020600084815260200190815260200160002054905080600660008773ffffffffffffffffffffffffffffffffffffffff1673ffffffffffffffffffffffffffffffffffffffff168152602001908152602001600020600084815260200190815260200160002081905550816007600083815260200190815260200160002081905550505b6007600084815260200190815260200160002060009055600660008573ffffffffffffffffffffffffffffffffffffffff1673ffffffffffffffffffffffffffffffffffffffff16815260200190815260200160002060008381526020019081526020016000206000905550505050565b60006001600880549050611ebe9190612dcb565b9050600060096000848152602001908152602001600020549050600060088381548110611f14577f4e487b7100000000000000000000000000000000000000000000000000000000600052603260045260246000fd5b906000526020600020015490508060088381548110611f5c577f4e487b7100000000000000000000000000000000000000000000000000000000600052603260045260246000fd5b906000526020600020018190555081600960008381526020019081526020016000208190555060096000858152602001908152602001600020600090556008805480611fd1577f4e487b7100000000000000000000000000000000000000000000000000000000600052603160045260246000fd5b6001900381819060005260206000200160009055905550505050565b6000611ff883610b54565b905081600660008573ffffffffffffffffffffffffffffffffffffffff1673ffffffffffffffffffffffffffffffffffffffff168152602001908152602001600020600083815260200190815260200160002081905550806007600084815260200190815260200160002081905550505050565b6000808273ffffffffffffffffffffffffffffffffffffffff163b119050919050565b82805461209b90612ec7565b90600052602060002090601f0160209004810192826120bd5760008555612104565b82601f106120d657805160ff1916838001178555612104565b82800160010185558215612104579182015b828111156121035782518255916020019190600101906120e8565b5b509050612111919061212f565b5090565b604051806040016040528060008152602001606081525090565b5b80821115612148576000816000905550600101612130565b5090565b600061215f61215a84612c8e565b612c69565b90508281526020810184848401111561217757600080fd5b612182848285612e85565b509392505050565b600061219d61219884612cbf565b612c69565b9050828152602081018484840111156121b557600080fd5b6121c0848285612e85565b509392505050565b6000813590506121d78161353e565b92915050565b6000813590506121ec81613555565b92915050565b60008151905061220181613555565b92915050565b6000813590506122168161356c565b92915050565b60008151905061222b8161356c565b92915050565b600082601f83011261224257600080fd5b813561225284826020860161214c565b91505092915050565b600082601f83011261226c57600080fd5b813561227c84826020860161218a565b91505092915050565b60008135905061229481613583565b92915050565b6000602082840312156122ac57600080fd5b60006122ba848285016121c8565b91505092915050565b600080604083850312156122d657600080fd5b60006122e4858286016121c8565b92505060206122f5858286016121c8565b9150509250929050565b60008060006060848603121561231457600080fd5b6000612322868287016121c8565b9350506020612333868287016121c8565b925050604061234486828701612285565b9150509250925092565b6000806000806080858703121561236457600080fd5b6000612372878288016121c8565b9450506020612383878288016121c8565b935050604061239487828801612285565b925050606085013567ffffffffffffffff8111156123b157600080fd5b6123bd87828801612231565b91505092959194509250565b600080604083850312156123dc57600080fd5b60006123ea858286016121c8565b92505060206123fb858286016121dd565b9150509250929050565b6000806040838503121561241857600080fd5b6000612426858286016121c8565b925050602061243785828601612285565b9150509250929050565b60006020828403121561245357600080fd5b6000612461848285016121f2565b91505092915050565b60006020828403121561247c57600080fd5b600061248a84828501612207565b91505092915050565b6000602082840312156124a557600080fd5b60006124b38482850161221c565b91505092915050565b6000602082840312156124ce57600080fd5b600082013567ffffffffffffffff8111156124e857600080fd5b6124f48482850161225b565b91505092915050565b60006020828403121561250f57600080fd5b600061251d84828501612285565b91505092915050565b61252f81612dff565b82525050565b61253e81612e11565b82525050565b600061254f82612cf0565b6125598185612d06565b9350612569818560208601612e94565b61257281613060565b840191505092915050565b61258681612e73565b82525050565b600061259782612cfb565b6125a18185612d17565b93506125b1818560208601612e94565b6125ba81613060565b840191505092915050565b60006125d082612cfb565b6125da8185612d28565b93506125ea818560208601612e94565b6125f381613060565b840191505092915050565b600061260982612cfb565b6126138185612d39565b9350612623818560208601612e94565b80840191505092915050565b600061263c602b83612d28565b915061264782613071565b604082019050919050565b600061265f603283612d28565b915061266a826130c0565b604082019050919050565b6000612682602583612d28565b915061268d8261310f565b604082019050919050565b60006126a5601c83612d28565b91506126b08261315e565b602082019050919050565b60006126c8602483612d28565b91506126d382613187565b604082019050919050565b60006126eb601983612d28565b91506126f6826131d6565b602082019050919050565b600061270e602c83612d28565b9150612719826131ff565b604082019050919050565b6000612731603883612d28565b915061273c8261324e565b604082019050919050565b6000612754602a83612d28565b915061275f8261329d565b604082019050919050565b6000612777602983612d28565b9150612782826132ec565b604082019050919050565b600061279a602083612d28565b91506127a58261333b565b602082019050919050565b60006127bd602c83612d28565b91506127c882613364565b604082019050919050565b60006127e0602f83612d28565b91506127eb826133b3565b604082019050919050565b6000612803602183612d28565b915061280e82613402565b604082019050919050565b6000612826603183612d28565b915061283182613451565b604082019050919050565b6000612849602c83612d28565b9150612854826134a0565b604082019050919050565b600061286c602383612d28565b9150612877826134ef565b604082019050919050565b600060408301600083015161289a60008601826128bf565b50602083015184820360208601526128b2828261258c565b9150508091505092915050565b6128c881612e69565b82525050565b6128d781612e69565b82525050565b60006128e982856125fe565b91506128f582846125fe565b91508190509392505050565b60006020820190506129166000830184612526565b92915050565b60006060820190506129316000830186612526565b61293e6020830185612526565b61294b604083018461257d565b949350505050565b60006080820190506129686000830187612526565b6129756020830186612526565b61298260408301856128ce565b81810360608301526129948184612544565b905095945050505050565b60006020820190506129b46000830184612535565b92915050565b600060208201905081810360008301526129d481846125c5565b905092915050565b600060208201905081810360008301526129f58161262f565b9050919050565b60006020820190508181036000830152612a1581612652565b9050919050565b60006020820190508181036000830152612a3581612675565b9050919050565b60006020820190508181036000830152612a5581612698565b9050919050565b60006020820190508181036000830152612a75816126bb565b9050919050565b60006020820190508181036000830152612a95816126de565b9050919050565b60006020820190508181036000830152612ab581612701565b9050919050565b60006020820190508181036000830152612ad581612724565b9050919050565b60006020820190508181036000830152612af581612747565b9050919050565b60006020820190508181036000830152612b158161276a565b9050919050565b60006020820190508181036000830152612b358161278d565b9050919050565b60006020820190508181036000830152612b55816127b0565b9050919050565b60006020820190508181036000830152612b75816127d3565b9050919050565b60006020820190508181036000830152612b95816127f6565b9050919050565b60006020820190508181036000830152612bb581612819565b9050919050565b60006020820190508181036000830152612bd58161283c565b9050919050565b60006020820190508181036000830152612bf58161285f565b9050919050565b60006020820190508181036000830152612c168184612882565b905092915050565b6000602082019050612c3360008301846128ce565b92915050565b6000604082019050612c4e60008301856128ce565b8181036020830152612c6081846125c5565b90509392505050565b6000612c73612c84565b9050612c7f8282612ef9565b919050565b6000604051905090565b600067ffffffffffffffff821115612ca957612ca8613031565b5b612cb282613060565b9050602081019050919050565b600067ffffffffffffffff821115612cda57612cd9613031565b5b612ce382613060565b9050602081019050919050565b600081519050919050565b600081519050919050565b600082825260208201905092915050565b600082825260208201905092915050565b600082825260208201905092915050565b600081905092915050565b6000612d4f82612e69565b9150612d5a83612e69565b9250827fffffffffffffffffffffffffffffffffffffffffffffffffffffffffffffffff03821115612d8f57612d8e612fa4565b5b828201905092915050565b6000612da582612e69565b9150612db083612e69565b925082612dc057612dbf612fd3565b5b828204905092915050565b6000612dd682612e69565b9150612de183612e69565b925082821015612df457612df3612fa4565b5b828203905092915050565b6000612e0a82612e49565b9050919050565b60008115159050919050565b60007fffffffff0000000000000000000000000000000000000000000000000000000082169050919050565b600073ffffffffffffffffffffffffffffffffffffffff82169050919050565b6000819050919050565b6000612e7e82612e69565b9050919050565b82818337600083830152505050565b60005b83811015612eb2578082015181840152602081019050612e97565b83811115612ec1576000848401525b50505050565b60006002820490506001821680612edf57607f821691505b60208210811415612ef357612ef2613002565b5b50919050565b612f0282613060565b810181811067ffffffffffffffff82111715612f2157612f20613031565b5b80604052505050565b6000612f3582612e69565b91507fffffffffffffffffffffffffffffffffffffffffffffffffffffffffffffffff821415612f6857612f67612fa4565b5b600182019050919050565b6000612f7e82612e69565b9150612f8983612e69565b925082612f9957612f98612fd3565b5b828206905092915050565b7f4e487b7100000000000000000000000000000000000000000000000000000000600052601160045260246000fd5b7f4e487b7100000000000000000000000000000000000000000000000000000000600052601260045260246000fd5b7f4e487b7100000000000000000000000000000000000000000000000000000000600052602260045260246000fd5b7f4e487b7100000000000000000000000000000000000000000000000000000000600052604160045260246000fd5b6000601f19601f8301169050919050565b7f455243373231456e756d657261626c653a206f776e657220696e646578206f7560008201527f74206f6620626f756e6473000000000000000000000000000000000000000000602082015250565b7f4552433732313a207472616e7366657220746f206e6f6e20455243373231526560008201527f63656976657220696d706c656d656e7465720000000000000000000000000000602082015250565b7f4552433732313a207472616e736665722066726f6d20696e636f72726563742060008201527f6f776e6572000000000000000000000000000000000000000000000000000000602082015250565b7f4552433732313a20746f6b656e20616c7265616479206d696e74656400000000600082015250565b7f4552433732313a207472616e7366657220746f20746865207a65726f2061646460008201527f7265737300000000000000000000000000000000000000000000000000000000602082015250565b7f4552433732313a20617070726f766520746f2063616c6c657200000000000000600082015250565b7f4552433732313a206f70657261746f7220717565727920666f72206e6f6e657860008201527f697374656e7420746f6b656e0000000000000000000000000000000000000000602082015250565b7f4552433732313a20617070726f76652063616c6c6572206973206e6f74206f7760008201527f6e6572206e6f7220617070726f76656420666f7220616c6c0000000000000000602082015250565b7f4552433732313a2062616c616e636520717565727920666f7220746865207a6560008201527f726f206164647265737300000000000000000000000000000000000000000000602082015250565b7f4552433732313a206f776e657220717565727920666f72206e6f6e657869737460008201527f656e7420746f6b656e0000000000000000000000000000000000000000000000602082015250565b7f4552433732313a206d696e7420746f20746865207a65726f2061646472657373600082015250565b7f4552433732313a20617070726f76656420717565727920666f72206e6f6e657860008201527f697374656e7420746f6b656e0000000000000000000000000000000000000000602082015250565b7f4552433732314d657461646174613a2055524920717565727920666f72206e6f60008201527f6e6578697374656e7420746f6b656e0000000000000000000000000000000000602082015250565b7f4552433732313a20617070726f76616c20746f2063757272656e74206f776e6560008201527f7200000000000000000000000000000000000000000000000000000000000000602082015250565b7f4552433732313a207472616e736665722063616c6c6572206973206e6f74206f60008201527f776e6572206e6f7220617070726f766564000000000000000000000000000000602082015250565b7f455243373231456e756d657261626c653a20676c6f62616c20696e646578206f60008201527f7574206f6620626f756e64730000000000000000000000000000000000000000602082015250565b7f496e73756666696369656e742046756e64733a2052657175697265732031204e60008201527f656f6e0000000000000000000000000000000000000000000000000000000000602082015250565b61354781612dff565b811461355257600080fd5b50565b61355e81612e11565b811461356957600080fd5b50565b61357581612e1d565b811461358057600080fd5b50565b61358c81612e69565b811461359757600080fd5b5056fea26469706673582212201abab7f935f3546e69a2c16c87d7b9d064150550d51e4dab70948298da92ecc464736f6c63430008010033",
  "linkReferences": {},
  "deployedLinkReferences": {}
}