{
  "_format": "hh-sol-artifact-1",
  "contractName": "Avatar",
  "sourceName": "contracts/Avatar.sol",
  "abi": [
    {
      "inputs": [
        {
          "internalType": "string",
          "name": "_name",
          "type": "string"
        },
        {
          "internalType": "string",
          "name": "_symbol",
          "type": "string"
        }
      ],
      "stateMutability": "nonpayable",
      "type": "constructor"
    },
    {
      "anonymous": false,
      "inputs": [
        {
          "indexed": true,
          "internalType": "address",
          "name": "owner",
          "type": "address"
        },
        {
          "indexed": true,
          "internalType": "address",
          "name": "approved",
          "type": "address"
        },
        {
          "indexed": true,
          "internalType": "uint256",
          "name": "tokenId",
          "type": "uint256"
        }
      ],
      "name": "Approval",
      "type": "event"
    },
    {
      "anonymous": false,
      "inputs": [
        {
          "indexed": true,
          "internalType": "address",
          "name": "owner",
          "type": "address"
        },
        {
          "indexed": true,
          "internalType": "address",
          "name": "operator",
          "type": "address"
        },
        {
          "indexed": false,
          "internalType": "bool",
          "name": "approved",
          "type": "bool"
        }
      ],
      "name": "ApprovalForAll",
      "type": "event"
    },
    {
      "anonymous": false,
      "inputs": [
        {
          "indexed": true,
          "internalType": "address",
          "name": "from",
          "type": "address"
        },
        {
          "indexed": true,
          "internalType": "address",
          "name": "to",
          "type": "address"
        },
        {
          "indexed": true,
          "internalType": "uint256",
          "name": "tokenId",
          "type": "uint256"
        }
      ],
      "name": "Transfer",
      "type": "event"
    },
    {
      "inputs": [
        {
          "internalType": "address",
          "name": "to",
          "type": "address"
        },
        {
          "internalType": "uint256",
          "name": "tokenId",
          "type": "uint256"
        }
      ],
      "name": "approve",
      "outputs": [],
      "stateMutability": "nonpayable",
      "type": "function"
    },
    {
      "inputs": [
        {
          "internalType": "uint256",
          "name": "",
          "type": "uint256"
        }
      ],
      "name": "avatarDetails",
      "outputs": [
        {
          "internalType": "string",
          "name": "name",
          "type": "string"
        }
      ],
      "stateMutability": "view",
      "type": "function"
    },
    {
      "inputs": [
        {
          "internalType": "address",
          "name": "owner",
          "type": "address"
        }
      ],
      "name": "balanceOf",
      "outputs": [
        {
          "internalType": "uint256",
          "name": "",
          "type": "uint256"
        }
      ],
      "stateMutability": "view",
      "type": "function"
    },
    {
      "inputs": [
        {
          "internalType": "string",
          "name": "name",
          "type": "string"
        }
      ],
      "name": "generateCharacter",
      "outputs": [],
      "stateMutability": "nonpayable",
      "type": "function"
    },
    {
      "inputs": [
        {
          "internalType": "uint256",
          "name": "tokenId",
          "type": "uint256"
        }
      ],
      "name": "getApproved",
      "outputs": [
        {
          "internalType": "address",
          "name": "",
          "type": "address"
        }
      ],
      "stateMutability": "view",
      "type": "function"
    },
    {
      "inputs": [
        {
          "internalType": "address",
          "name": "owner",
          "type": "address"
        },
        {
          "internalType": "address",
          "name": "operator",
          "type": "address"
        }
      ],
      "name": "isApprovedForAll",
      "outputs": [
        {
          "internalType": "bool",
          "name": "",
          "type": "bool"
        }
      ],
      "stateMutability": "view",
      "type": "function"
    },
    {
      "inputs": [],
      "name": "name",
      "outputs": [
        {
          "internalType": "string",
          "name": "",
          "type": "string"
        }
      ],
      "stateMutability": "view",
      "type": "function"
    },
    {
      "inputs": [
        {
          "internalType": "uint256",
          "name": "tokenId",
          "type": "uint256"
        }
      ],
      "name": "ownerOf",
      "outputs": [
        {
          "internalType": "address",
          "name": "",
          "type": "address"
        }
      ],
      "stateMutability": "view",
      "type": "function"
    },
    {
      "inputs": [
        {
          "internalType": "address",
          "name": "from",
          "type": "address"
        },
        {
          "internalType": "address",
          "name": "to",
          "type": "address"
        },
        {
          "internalType": "uint256",
          "name": "tokenId",
          "type": "uint256"
        }
      ],
      "name": "safeTransferFrom",
      "outputs": [],
      "stateMutability": "nonpayable",
      "type": "function"
    },
    {
      "inputs": [
        {
          "internalType": "address",
          "name": "from",
          "type": "address"
        },
        {
          "internalType": "address",
          "name": "to",
          "type": "address"
        },
        {
          "internalType": "uint256",
          "name": "tokenId",
          "type": "uint256"
        },
        {
          "internalType": "bytes",
          "name": "_data",
          "type": "bytes"
        }
      ],
      "name": "safeTransferFrom",
      "outputs": [],
      "stateMutability": "nonpayable",
      "type": "function"
    },
    {
      "inputs": [
        {
          "internalType": "address",
          "name": "operator",
          "type": "address"
        },
        {
          "internalType": "bool",
          "name": "approved",
          "type": "bool"
        }
      ],
      "name": "setApprovalForAll",
      "outputs": [],
      "stateMutability": "nonpayable",
      "type": "function"
    },
    {
      "inputs": [
        {
          "internalType": "bytes4",
          "name": "interfaceId",
          "type": "bytes4"
        }
      ],
      "name": "supportsInterface",
      "outputs": [
        {
          "internalType": "bool",
          "name": "",
          "type": "bool"
        }
      ],
      "stateMutability": "view",
      "type": "function"
    },
    {
      "inputs": [],
      "name": "symbol",
      "outputs": [
        {
          "internalType": "string",
          "name": "",
          "type": "string"
        }
      ],
      "stateMutability": "view",
      "type": "function"
    },
    {
      "inputs": [
        {
          "internalType": "uint256",
          "name": "index",
          "type": "uint256"
        }
      ],
      "name": "tokenByIndex",
      "outputs": [
        {
          "internalType": "uint256",
          "name": "",
          "type": "uint256"
        }
      ],
      "stateMutability": "view",
      "type": "function"
    },
    {
      "inputs": [
        {
          "internalType": "address",
          "name": "owner",
          "type": "address"
        },
        {
          "internalType": "uint256",
          "name": "index",
          "type": "uint256"
        }
      ],
      "name": "tokenOfOwnerByIndex",
      "outputs": [
        {
          "internalType": "uint256",
          "name": "",
          "type": "uint256"
        }
      ],
      "stateMutability": "view",
      "type": "function"
    },
    {
      "inputs": [
        {
          "internalType": "uint256",
          "name": "tokenId",
          "type": "uint256"
        }
      ],
      "name": "tokenURI",
      "outputs": [
        {
          "internalType": "string",
          "name": "",
          "type": "string"
        }
      ],
      "stateMutability": "view",
      "type": "function"
    },
    {
      "inputs": [],
      "name": "totalSupply",
      "outputs": [
        {
          "internalType": "uint256",
          "name": "",
          "type": "uint256"
        }
      ],
      "stateMutability": "view",
      "type": "function"
    },
    {
      "inputs": [
        {
          "internalType": "address",
          "name": "from",
          "type": "address"
        },
        {
          "internalType": "address",
          "name": "to",
          "type": "address"
        },
        {
          "internalType": "uint256",
          "name": "tokenId",
          "type": "uint256"
        }
      ],
      "name": "transferFrom",
      "outputs": [],
      "stateMutability": "nonpayable",
      "type": "function"
    }
  ],
  "bytecode": "0x60806040526000600a553480156200001657600080fd5b506040516200351a3803806200351a83398181016040528101906200003c91906200019c565b81818160009080519060200190620000569291906200007a565b5080600190805190602001906200006f9291906200007a565b50505050506200037f565b8280546200008890620002a4565b90600052602060002090601f016020900481019282620000ac5760008555620000f8565b82601f10620000c757805160ff1916838001178555620000f8565b82800160010185558215620000f8579182015b82811115620000f7578251825591602001919060010190620000da565b5b5090506200010791906200010b565b5090565b5b80821115620001265760008160009055506001016200010c565b5090565b6000620001416200013b8462000238565b6200020f565b9050828152602081018484840111156200015a57600080fd5b620001678482856200026e565b509392505050565b600082601f8301126200018157600080fd5b8151620001938482602086016200012a565b91505092915050565b60008060408385031215620001b057600080fd5b600083015167ffffffffffffffff811115620001cb57600080fd5b620001d9858286016200016f565b925050602083015167ffffffffffffffff811115620001f757600080fd5b62000205858286016200016f565b9150509250929050565b60006200021b6200022e565b9050620002298282620002da565b919050565b6000604051905090565b600067ffffffffffffffff8211156200025657620002556200033f565b5b62000261826200036e565b9050602081019050919050565b60005b838110156200028e57808201518184015260208101905062000271565b838111156200029e576000848401525b50505050565b60006002820490506001821680620002bd57607f821691505b60208210811415620002d457620002d362000310565b5b50919050565b620002e5826200036e565b810181811067ffffffffffffffff821117156200030757620003066200033f565b5b80604052505050565b7f4e487b7100000000000000000000000000000000000000000000000000000000600052602260045260246000fd5b7f4e487b7100000000000000000000000000000000000000000000000000000000600052604160045260246000fd5b6000601f19601f8301169050919050565b61318b806200038f6000396000f3fe608060405234801561001057600080fd5b50600436106101165760003560e01c806342842e0e116100a257806395d89b411161007157806395d89b4114610317578063a22cb46514610335578063b88d4fde14610351578063c87b56dd1461036d578063e985e9c51461039d57610116565b806342842e0e1461026b5780634f6ccce7146102875780636352211e146102b757806370a08231146102e757610116565b806318160ddd116100e957806318160ddd146101b557806323b872dd146101d3578063288d3d8d146101ef5780632c82c8091461020b5780632f745c591461023b57610116565b806301ffc9a71461011b57806306fdde031461014b578063081812fc14610169578063095ea7b314610199575b600080fd5b610135600480360381019061013091906121f7565b6103cd565b604051610142919061263e565b60405180910390f35b610153610447565b6040516101609190612659565b60405180910390f35b610183600480360381019061017e919061228a565b6104d9565b60405161019091906125d7565b60405180910390f35b6101b360048036038101906101ae91906121bb565b61055e565b005b6101bd610676565b6040516101ca919061287b565b60405180910390f35b6101ed60048036038101906101e891906120b5565b610683565b005b61020960048036038101906102049190612249565b6106e3565b005b6102256004803603810190610220919061228a565b61074e565b6040516102329190612659565b60405180910390f35b610255600480360381019061025091906121bb565b6107f4565b604051610262919061287b565b60405180910390f35b610285600480360381019061028091906120b5565b610899565b005b6102a1600480360381019061029c919061228a565b6108b9565b6040516102ae919061287b565b60405180910390f35b6102d160048036038101906102cc919061228a565b610950565b6040516102de91906125d7565b60405180910390f35b61030160048036038101906102fc9190612050565b610a02565b60405161030e919061287b565b60405180910390f35b61031f610aba565b60405161032c9190612659565b60405180910390f35b61034f600480360381019061034a919061217f565b610b4c565b005b61036b60048036038101906103669190612104565b610b62565b005b6103876004803603810190610382919061228a565b610bc4565b6040516103949190612659565b60405180910390f35b6103b760048036038101906103b29190612079565b610c6b565b6040516103c4919061263e565b60405180910390f35b60007f780e9d63000000000000000000000000000000000000000000000000000000007bffffffffffffffffffffffffffffffffffffffffffffffffffffffff1916827bffffffffffffffffffffffffffffffffffffffffffffffffffffffff19161480610440575061043f82610cff565b5b9050919050565b60606000805461045690612ad1565b80601f016020809104026020016040519081016040528092919081815260200182805461048290612ad1565b80156104cf5780601f106104a4576101008083540402835291602001916104cf565b820191906000526020600020905b8154815290600101906020018083116104b257829003601f168201915b5050505050905090565b60006104e482610de1565b610523576040517f08c379a000000000000000000000000000000000000000000000000000000000815260040161051a906127db565b60405180910390fd5b6004600083815260200190815260200160002060009054906101000a900473ffffffffffffffffffffffffffffffffffffffff169050919050565b600061056982610950565b90508073ffffffffffffffffffffffffffffffffffffffff168373ffffffffffffffffffffffffffffffffffffffff1614156105da576040517f08c379a00000000000000000000000000000000000000000000000000000000081526004016105d19061281b565b60405180910390fd5b8073ffffffffffffffffffffffffffffffffffffffff166105f9610e4d565b73ffffffffffffffffffffffffffffffffffffffff161480610628575061062781610622610e4d565b610c6b565b5b610667576040517f08c379a000000000000000000000000000000000000000000000000000000000815260040161065e9061275b565b60405180910390fd5b6106718383610e55565b505050565b6000600880549050905090565b61069461068e610e4d565b82610f0e565b6106d3576040517f08c379a00000000000000000000000000000000000000000000000000000000081526004016106ca9061283b565b60405180910390fd5b6106de838383610fec565b505050565b600a60008154809291906106f690612b34565b919050555061070733600a54611253565b604051806020016040528082815250600b6000600a5481526020019081526020016000206000820151816000019080519060200190610747929190611e74565b5090505050565b600b60205280600052604060002060009150905080600001805461077190612ad1565b80601f016020809104026020016040519081016040528092919081815260200182805461079d90612ad1565b80156107ea5780601f106107bf576101008083540402835291602001916107ea565b820191906000526020600020905b8154815290600101906020018083116107cd57829003601f168201915b5050505050905081565b60006107ff83610a02565b8210610840576040517f08c379a00000000000000000000000000000000000000000000000000000000081526004016108379061267b565b60405180910390fd5b600660008473ffffffffffffffffffffffffffffffffffffffff1673ffffffffffffffffffffffffffffffffffffffff168152602001908152602001600020600083815260200190815260200160002054905092915050565b6108b483838360405180602001604052806000815250610b62565b505050565b60006108c3610676565b8210610904576040517f08c379a00000000000000000000000000000000000000000000000000000000081526004016108fb9061285b565b60405180910390fd5b6008828154811061093e577f4e487b7100000000000000000000000000000000000000000000000000000000600052603260045260246000fd5b90600052602060002001549050919050565b6000806002600084815260200190815260200160002060009054906101000a900473ffffffffffffffffffffffffffffffffffffffff169050600073ffffffffffffffffffffffffffffffffffffffff168173ffffffffffffffffffffffffffffffffffffffff1614156109f9576040517f08c379a00000000000000000000000000000000000000000000000000000000081526004016109f09061279b565b60405180910390fd5b80915050919050565b60008073ffffffffffffffffffffffffffffffffffffffff168273ffffffffffffffffffffffffffffffffffffffff161415610a73576040517f08c379a0000000000000000000000000000000000000000000000000000000008152600401610a6a9061277b565b60405180910390fd5b600360008373ffffffffffffffffffffffffffffffffffffffff1673ffffffffffffffffffffffffffffffffffffffff168152602001908152602001600020549050919050565b606060018054610ac990612ad1565b80601f0160208091040260200160405190810160405280929190818152602001828054610af590612ad1565b8015610b425780601f10610b1757610100808354040283529160200191610b42565b820191906000526020600020905b815481529060010190602001808311610b2557829003601f168201915b5050505050905090565b610b5e610b57610e4d565b838361142d565b5050565b610b73610b6d610e4d565b83610f0e565b610bb2576040517f08c379a0000000000000000000000000000000000000000000000000000000008152600401610ba99061283b565b60405180910390fd5b610bbe8484848461159a565b50505050565b6060610bcf82610de1565b610c0e576040517f08c379a0000000000000000000000000000000000000000000000000000000008152600401610c05906127fb565b60405180910390fd5b6000610c186115f6565b90506000815111610c385760405180602001604052806000815250610c63565b80610c428461160d565b604051602001610c539291906125b3565b6040516020818303038152906040525b915050919050565b6000600560008473ffffffffffffffffffffffffffffffffffffffff1673ffffffffffffffffffffffffffffffffffffffff16815260200190815260200160002060008373ffffffffffffffffffffffffffffffffffffffff1673ffffffffffffffffffffffffffffffffffffffff16815260200190815260200160002060009054906101000a900460ff16905092915050565b60007f80ac58cd000000000000000000000000000000000000000000000000000000007bffffffffffffffffffffffffffffffffffffffffffffffffffffffff1916827bffffffffffffffffffffffffffffffffffffffffffffffffffffffff19161480610dca57507f5b5e139f000000000000000000000000000000000000000000000000000000007bffffffffffffffffffffffffffffffffffffffffffffffffffffffff1916827bffffffffffffffffffffffffffffffffffffffffffffffffffffffff1916145b80610dda5750610dd9826117ba565b5b9050919050565b60008073ffffffffffffffffffffffffffffffffffffffff166002600084815260200190815260200160002060009054906101000a900473ffffffffffffffffffffffffffffffffffffffff1673ffffffffffffffffffffffffffffffffffffffff1614159050919050565b600033905090565b816004600083815260200190815260200160002060006101000a81548173ffffffffffffffffffffffffffffffffffffffff021916908373ffffffffffffffffffffffffffffffffffffffff160217905550808273ffffffffffffffffffffffffffffffffffffffff16610ec883610950565b73ffffffffffffffffffffffffffffffffffffffff167f8c5be1e5ebec7d5bd14f71427d1e84f3dd0314c0f7b2291e5b200ac8c7c3b92560405160405180910390a45050565b6000610f1982610de1565b610f58576040517f08c379a0000000000000000000000000000000000000000000000000000000008152600401610f4f9061273b565b60405180910390fd5b6000610f6383610950565b90508073ffffffffffffffffffffffffffffffffffffffff168473ffffffffffffffffffffffffffffffffffffffff161480610fa55750610fa48185610c6b565b5b80610fe357508373ffffffffffffffffffffffffffffffffffffffff16610fcb846104d9565b73ffffffffffffffffffffffffffffffffffffffff16145b91505092915050565b8273ffffffffffffffffffffffffffffffffffffffff1661100c82610950565b73ffffffffffffffffffffffffffffffffffffffff1614611062576040517f08c379a0000000000000000000000000000000000000000000000000000000008152600401611059906126bb565b60405180910390fd5b600073ffffffffffffffffffffffffffffffffffffffff168273ffffffffffffffffffffffffffffffffffffffff1614156110d2576040517f08c379a00000000000000000000000000000000000000000000000000000000081526004016110c9906126fb565b60405180910390fd5b6110dd838383611824565b6110e8600082610e55565b6001600360008573ffffffffffffffffffffffffffffffffffffffff1673ffffffffffffffffffffffffffffffffffffffff168152602001908152602001600020600082825461113891906129e7565b925050819055506001600360008473ffffffffffffffffffffffffffffffffffffffff1673ffffffffffffffffffffffffffffffffffffffff168152602001908152602001600020600082825461118f9190612960565b92505081905550816002600083815260200190815260200160002060006101000a81548173ffffffffffffffffffffffffffffffffffffffff021916908373ffffffffffffffffffffffffffffffffffffffff160217905550808273ffffffffffffffffffffffffffffffffffffffff168473ffffffffffffffffffffffffffffffffffffffff167fddf252ad1be2c89b69c2b068fc378daa952ba7f163c4a11628f55a4df523b3ef60405160405180910390a461124e838383611938565b505050565b600073ffffffffffffffffffffffffffffffffffffffff168273ffffffffffffffffffffffffffffffffffffffff1614156112c3576040517f08c379a00000000000000000000000000000000000000000000000000000000081526004016112ba906127bb565b60405180910390fd5b6112cc81610de1565b1561130c576040517f08c379a0000000000000000000000000000000000000000000000000000000008152600401611303906126db565b60405180910390fd5b61131860008383611824565b6001600360008473ffffffffffffffffffffffffffffffffffffffff1673ffffffffffffffffffffffffffffffffffffffff16815260200190815260200160002060008282546113689190612960565b92505081905550816002600083815260200190815260200160002060006101000a81548173ffffffffffffffffffffffffffffffffffffffff021916908373ffffffffffffffffffffffffffffffffffffffff160217905550808273ffffffffffffffffffffffffffffffffffffffff16600073ffffffffffffffffffffffffffffffffffffffff167fddf252ad1be2c89b69c2b068fc378daa952ba7f163c4a11628f55a4df523b3ef60405160405180910390a461142960008383611938565b5050565b8173ffffffffffffffffffffffffffffffffffffffff168373ffffffffffffffffffffffffffffffffffffffff16141561149c576040517f08c379a00000000000000000000000000000000000000000000000000000000081526004016114939061271b565b60405180910390fd5b80600560008573ffffffffffffffffffffffffffffffffffffffff1673ffffffffffffffffffffffffffffffffffffffff16815260200190815260200160002060008473ffffffffffffffffffffffffffffffffffffffff1673ffffffffffffffffffffffffffffffffffffffff16815260200190815260200160002060006101000a81548160ff0219169083151502179055508173ffffffffffffffffffffffffffffffffffffffff168373ffffffffffffffffffffffffffffffffffffffff167f17307eab39ab6107e8899845ad3d59bd9653f200f220920489ca2b5937696c318360405161158d919061263e565b60405180910390a3505050565b6115a5848484610fec565b6115b18484848461193d565b6115f0576040517f08c379a00000000000000000000000000000000000000000000000000000000081526004016115e79061269b565b60405180910390fd5b50505050565b606060405180602001604052806000815250905090565b60606000821415611655576040518060400160405280600181526020017f300000000000000000000000000000000000000000000000000000000000000081525090506117b5565b600082905060005b6000821461168757808061167090612b34565b915050600a8261168091906129b6565b915061165d565b60008167ffffffffffffffff8111156116c9577f4e487b7100000000000000000000000000000000000000000000000000000000600052604160045260246000fd5b6040519080825280601f01601f1916602001820160405280156116fb5781602001600182028036833780820191505090505b5090505b600085146117ae5760018261171491906129e7565b9150600a856117239190612b7d565b603061172f9190612960565b60f81b81838151811061176b577f4e487b7100000000000000000000000000000000000000000000000000000000600052603260045260246000fd5b60200101907effffffffffffffffffffffffffffffffffffffffffffffffffffffffffffff1916908160001a905350600a856117a791906129b6565b94506116ff565b8093505050505b919050565b60007f01ffc9a7000000000000000000000000000000000000000000000000000000007bffffffffffffffffffffffffffffffffffffffffffffffffffffffff1916827bffffffffffffffffffffffffffffffffffffffffffffffffffffffff1916149050919050565b61182f838383611ad4565b600073ffffffffffffffffffffffffffffffffffffffff168373ffffffffffffffffffffffffffffffffffffffff1614156118725761186d81611ad9565b6118b1565b8173ffffffffffffffffffffffffffffffffffffffff168373ffffffffffffffffffffffffffffffffffffffff16146118b0576118af8382611b22565b5b5b600073ffffffffffffffffffffffffffffffffffffffff168273ffffffffffffffffffffffffffffffffffffffff1614156118f4576118ef81611c8f565b611933565b8273ffffffffffffffffffffffffffffffffffffffff168273ffffffffffffffffffffffffffffffffffffffff1614611932576119318282611dd2565b5b5b505050565b505050565b600061195e8473ffffffffffffffffffffffffffffffffffffffff16611e51565b15611ac7578373ffffffffffffffffffffffffffffffffffffffff1663150b7a02611987610e4d565b8786866040518563ffffffff1660e01b81526004016119a994939291906125f2565b602060405180830381600087803b1580156119c357600080fd5b505af19250505080156119f457506040513d601f19601f820116820180604052508101906119f19190612220565b60015b611a77573d8060008114611a24576040519150601f19603f3d011682016040523d82523d6000602084013e611a29565b606091505b50600081511415611a6f576040517f08c379a0000000000000000000000000000000000000000000000000000000008152600401611a669061269b565b60405180910390fd5b805181602001fd5b63150b7a0260e01b7bffffffffffffffffffffffffffffffffffffffffffffffffffffffff1916817bffffffffffffffffffffffffffffffffffffffffffffffffffffffff191614915050611acc565b600190505b949350505050565b505050565b6008805490506009600083815260200190815260200160002081905550600881908060018154018082558091505060019003906000526020600020016000909190919091505550565b60006001611b2f84610a02565b611b3991906129e7565b9050600060076000848152602001908152602001600020549050818114611c1e576000600660008673ffffffffffffffffffffffffffffffffffffffff1673ffffffffffffffffffffffffffffffffffffffff168152602001908152602001600020600084815260200190815260200160002054905080600660008773ffffffffffffffffffffffffffffffffffffffff1673ffffffffffffffffffffffffffffffffffffffff168152602001908152602001600020600084815260200190815260200160002081905550816007600083815260200190815260200160002081905550505b6007600084815260200190815260200160002060009055600660008573ffffffffffffffffffffffffffffffffffffffff1673ffffffffffffffffffffffffffffffffffffffff16815260200190815260200160002060008381526020019081526020016000206000905550505050565b60006001600880549050611ca391906129e7565b9050600060096000848152602001908152602001600020549050600060088381548110611cf9577f4e487b7100000000000000000000000000000000000000000000000000000000600052603260045260246000fd5b906000526020600020015490508060088381548110611d41577f4e487b7100000000000000000000000000000000000000000000000000000000600052603260045260246000fd5b906000526020600020018190555081600960008381526020019081526020016000208190555060096000858152602001908152602001600020600090556008805480611db6577f4e487b7100000000000000000000000000000000000000000000000000000000600052603160045260246000fd5b6001900381819060005260206000200160009055905550505050565b6000611ddd83610a02565b905081600660008573ffffffffffffffffffffffffffffffffffffffff1673ffffffffffffffffffffffffffffffffffffffff168152602001908152602001600020600083815260200190815260200160002081905550806007600084815260200190815260200160002081905550505050565b6000808273ffffffffffffffffffffffffffffffffffffffff163b119050919050565b828054611e8090612ad1565b90600052602060002090601f016020900481019282611ea25760008555611ee9565b82601f10611ebb57805160ff1916838001178555611ee9565b82800160010185558215611ee9579182015b82811115611ee8578251825591602001919060010190611ecd565b5b509050611ef69190611efa565b5090565b5b80821115611f13576000816000905550600101611efb565b5090565b6000611f2a611f25846128bb565b612896565b905082815260208101848484011115611f4257600080fd5b611f4d848285612a8f565b509392505050565b6000611f68611f63846128ec565b612896565b905082815260208101848484011115611f8057600080fd5b611f8b848285612a8f565b509392505050565b600081359050611fa2816130f9565b92915050565b600081359050611fb781613110565b92915050565b600081359050611fcc81613127565b92915050565b600081519050611fe181613127565b92915050565b600082601f830112611ff857600080fd5b8135612008848260208601611f17565b91505092915050565b600082601f83011261202257600080fd5b8135612032848260208601611f55565b91505092915050565b60008135905061204a8161313e565b92915050565b60006020828403121561206257600080fd5b600061207084828501611f93565b91505092915050565b6000806040838503121561208c57600080fd5b600061209a85828601611f93565b92505060206120ab85828601611f93565b9150509250929050565b6000806000606084860312156120ca57600080fd5b60006120d886828701611f93565b93505060206120e986828701611f93565b92505060406120fa8682870161203b565b9150509250925092565b6000806000806080858703121561211a57600080fd5b600061212887828801611f93565b945050602061213987828801611f93565b935050604061214a8782880161203b565b925050606085013567ffffffffffffffff81111561216757600080fd5b61217387828801611fe7565b91505092959194509250565b6000806040838503121561219257600080fd5b60006121a085828601611f93565b92505060206121b185828601611fa8565b9150509250929050565b600080604083850312156121ce57600080fd5b60006121dc85828601611f93565b92505060206121ed8582860161203b565b9150509250929050565b60006020828403121561220957600080fd5b600061221784828501611fbd565b91505092915050565b60006020828403121561223257600080fd5b600061224084828501611fd2565b91505092915050565b60006020828403121561225b57600080fd5b600082013567ffffffffffffffff81111561227557600080fd5b61228184828501612011565b91505092915050565b60006020828403121561229c57600080fd5b60006122aa8482850161203b565b91505092915050565b6122bc81612a1b565b82525050565b6122cb81612a2d565b82525050565b60006122dc8261291d565b6122e68185612933565b93506122f6818560208601612a9e565b6122ff81612c6a565b840191505092915050565b600061231582612928565b61231f8185612944565b935061232f818560208601612a9e565b61233881612c6a565b840191505092915050565b600061234e82612928565b6123588185612955565b9350612368818560208601612a9e565b80840191505092915050565b6000612381602b83612944565b915061238c82612c7b565b604082019050919050565b60006123a4603283612944565b91506123af82612cca565b604082019050919050565b60006123c7602583612944565b91506123d282612d19565b604082019050919050565b60006123ea601c83612944565b91506123f582612d68565b602082019050919050565b600061240d602483612944565b915061241882612d91565b604082019050919050565b6000612430601983612944565b915061243b82612de0565b602082019050919050565b6000612453602c83612944565b915061245e82612e09565b604082019050919050565b6000612476603883612944565b915061248182612e58565b604082019050919050565b6000612499602a83612944565b91506124a482612ea7565b604082019050919050565b60006124bc602983612944565b91506124c782612ef6565b604082019050919050565b60006124df602083612944565b91506124ea82612f45565b602082019050919050565b6000612502602c83612944565b915061250d82612f6e565b604082019050919050565b6000612525602f83612944565b915061253082612fbd565b604082019050919050565b6000612548602183612944565b91506125538261300c565b604082019050919050565b600061256b603183612944565b91506125768261305b565b604082019050919050565b600061258e602c83612944565b9150612599826130aa565b604082019050919050565b6125ad81612a85565b82525050565b60006125bf8285612343565b91506125cb8284612343565b91508190509392505050565b60006020820190506125ec60008301846122b3565b92915050565b600060808201905061260760008301876122b3565b61261460208301866122b3565b61262160408301856125a4565b818103606083015261263381846122d1565b905095945050505050565b600060208201905061265360008301846122c2565b92915050565b60006020820190508181036000830152612673818461230a565b905092915050565b6000602082019050818103600083015261269481612374565b9050919050565b600060208201905081810360008301526126b481612397565b9050919050565b600060208201905081810360008301526126d4816123ba565b9050919050565b600060208201905081810360008301526126f4816123dd565b9050919050565b6000602082019050818103600083015261271481612400565b9050919050565b6000602082019050818103600083015261273481612423565b9050919050565b6000602082019050818103600083015261275481612446565b9050919050565b6000602082019050818103600083015261277481612469565b9050919050565b600060208201905081810360008301526127948161248c565b9050919050565b600060208201905081810360008301526127b4816124af565b9050919050565b600060208201905081810360008301526127d4816124d2565b9050919050565b600060208201905081810360008301526127f4816124f5565b9050919050565b6000602082019050818103600083015261281481612518565b9050919050565b600060208201905081810360008301526128348161253b565b9050919050565b600060208201905081810360008301526128548161255e565b9050919050565b6000602082019050818103600083015261287481612581565b9050919050565b600060208201905061289060008301846125a4565b92915050565b60006128a06128b1565b90506128ac8282612b03565b919050565b6000604051905090565b600067ffffffffffffffff8211156128d6576128d5612c3b565b5b6128df82612c6a565b9050602081019050919050565b600067ffffffffffffffff82111561290757612906612c3b565b5b61291082612c6a565b9050602081019050919050565b600081519050919050565b600081519050919050565b600082825260208201905092915050565b600082825260208201905092915050565b600081905092915050565b600061296b82612a85565b915061297683612a85565b9250827fffffffffffffffffffffffffffffffffffffffffffffffffffffffffffffffff038211156129ab576129aa612bae565b5b828201905092915050565b60006129c182612a85565b91506129cc83612a85565b9250826129dc576129db612bdd565b5b828204905092915050565b60006129f282612a85565b91506129fd83612a85565b925082821015612a1057612a0f612bae565b5b828203905092915050565b6000612a2682612a65565b9050919050565b60008115159050919050565b60007fffffffff0000000000000000000000000000000000000000000000000000000082169050919050565b600073ffffffffffffffffffffffffffffffffffffffff82169050919050565b6000819050919050565b82818337600083830152505050565b60005b83811015612abc578082015181840152602081019050612aa1565b83811115612acb576000848401525b50505050565b60006002820490506001821680612ae957607f821691505b60208210811415612afd57612afc612c0c565b5b50919050565b612b0c82612c6a565b810181811067ffffffffffffffff82111715612b2b57612b2a612c3b565b5b80604052505050565b6000612b3f82612a85565b91507fffffffffffffffffffffffffffffffffffffffffffffffffffffffffffffffff821415612b7257612b71612bae565b5b600182019050919050565b6000612b8882612a85565b9150612b9383612a85565b925082612ba357612ba2612bdd565b5b828206905092915050565b7f4e487b7100000000000000000000000000000000000000000000000000000000600052601160045260246000fd5b7f4e487b7100000000000000000000000000000000000000000000000000000000600052601260045260246000fd5b7f4e487b7100000000000000000000000000000000000000000000000000000000600052602260045260246000fd5b7f4e487b7100000000000000000000000000000000000000000000000000000000600052604160045260246000fd5b6000601f19601f8301169050919050565b7f455243373231456e756d657261626c653a206f776e657220696e646578206f7560008201527f74206f6620626f756e6473000000000000000000000000000000000000000000602082015250565b7f4552433732313a207472616e7366657220746f206e6f6e20455243373231526560008201527f63656976657220696d706c656d656e7465720000000000000000000000000000602082015250565b7f4552433732313a207472616e736665722066726f6d20696e636f72726563742060008201527f6f776e6572000000000000000000000000000000000000000000000000000000602082015250565b7f4552433732313a20746f6b656e20616c7265616479206d696e74656400000000600082015250565b7f4552433732313a207472616e7366657220746f20746865207a65726f2061646460008201527f7265737300000000000000000000000000000000000000000000000000000000602082015250565b7f4552433732313a20617070726f766520746f2063616c6c657200000000000000600082015250565b7f4552433732313a206f70657261746f7220717565727920666f72206e6f6e657860008201527f697374656e7420746f6b656e0000000000000000000000000000000000000000602082015250565b7f4552433732313a20617070726f76652063616c6c6572206973206e6f74206f7760008201527f6e6572206e6f7220617070726f76656420666f7220616c6c0000000000000000602082015250565b7f4552433732313a2062616c616e636520717565727920666f7220746865207a6560008201527f726f206164647265737300000000000000000000000000000000000000000000602082015250565b7f4552433732313a206f776e657220717565727920666f72206e6f6e657869737460008201527f656e7420746f6b656e0000000000000000000000000000000000000000000000602082015250565b7f4552433732313a206d696e7420746f20746865207a65726f2061646472657373600082015250565b7f4552433732313a20617070726f76656420717565727920666f72206e6f6e657860008201527f697374656e7420746f6b656e0000000000000000000000000000000000000000602082015250565b7f4552433732314d657461646174613a2055524920717565727920666f72206e6f60008201527f6e6578697374656e7420746f6b656e0000000000000000000000000000000000602082015250565b7f4552433732313a20617070726f76616c20746f2063757272656e74206f776e6560008201527f7200000000000000000000000000000000000000000000000000000000000000602082015250565b7f4552433732313a207472616e736665722063616c6c6572206973206e6f74206f60008201527f776e6572206e6f7220617070726f766564000000000000000000000000000000602082015250565b7f455243373231456e756d657261626c653a20676c6f62616c20696e646578206f60008201527f7574206f6620626f756e64730000000000000000000000000000000000000000602082015250565b61310281612a1b565b811461310d57600080fd5b50565b61311981612a2d565b811461312457600080fd5b50565b61313081612a39565b811461313b57600080fd5b50565b61314781612a85565b811461315257600080fd5b5056fea2646970667358221220d7670485440176648e58535552aa400404d38017ee48eaed1b5eda269606305b64736f6c63430008010033",
  "linkReferences": {},
  "deployedLinkReferences": {}
}