{
  "_format": "hh-sol-artifact-1",
  "contractName": "Wilderness",
  "sourceName": "contracts/Wilderness.sol",
  "abi": [
    {
      "inputs": [
        {
          "internalType": "address",
          "name": "STONE_TOKEN_ADDRESS",
          "type": "address"
        },
        {
          "internalType": "address",
          "name": "STICK_TOKEN_ADDRESS",
          "type": "address"
        },
        {
          "internalType": "address",
          "name": "PLANT_TOKEN_ADDRESS",
          "type": "address"
        },
        {
          "internalType": "address",
          "name": "APPLE_TOKEN_ADDRESS",
          "type": "address"
        }
      ],
      "stateMutability": "nonpayable",
      "type": "constructor"
    },
    {
      "inputs": [],
      "name": "forage",
      "outputs": [],
      "stateMutability": "nonpayable",
      "type": "function"
    }
  ],
  "bytecode": "0x608060405234801561001057600080fd5b5060405161064d38038061064d83398181016040528101906100329190610153565b836000806101000a81548173ffffffffffffffffffffffffffffffffffffffff021916908373ffffffffffffffffffffffffffffffffffffffff16021790555082600160006101000a81548173ffffffffffffffffffffffffffffffffffffffff021916908373ffffffffffffffffffffffffffffffffffffffff16021790555081600260006101000a81548173ffffffffffffffffffffffffffffffffffffffff021916908373ffffffffffffffffffffffffffffffffffffffff16021790555080600360006101000a81548173ffffffffffffffffffffffffffffffffffffffff021916908373ffffffffffffffffffffffffffffffffffffffff160217905550505050506101ff565b60008151905061014d816101e8565b92915050565b6000806000806080858703121561016957600080fd5b60006101778782880161013e565b94505060206101888782880161013e565b93505060406101998782880161013e565b92505060606101aa8782880161013e565b91505092959194509250565b60006101c1826101c8565b9050919050565b600073ffffffffffffffffffffffffffffffffffffffff82169050919050565b6101f1816101b6565b81146101fc57600080fd5b50565b61043f8061020e6000396000f3fe608060405234801561001057600080fd5b506004361061002b5760003560e01c80638d8a342614610030575b600080fd5b61003861003a565b005b60008054906101000a900473ffffffffffffffffffffffffffffffffffffffff1673ffffffffffffffffffffffffffffffffffffffff166340c10f1933676f05b59d3b2000006040518363ffffffff1660e01b815260040161009d92919061035c565b600060405180830381600087803b1580156100b757600080fd5b505af11580156100cb573d6000803e3d6000fd5b50505050600160009054906101000a900473ffffffffffffffffffffffffffffffffffffffff1673ffffffffffffffffffffffffffffffffffffffff166340c10f1933678ac7230489e800006040518363ffffffff1660e01b81526004016101349291906102e1565b600060405180830381600087803b15801561014e57600080fd5b505af1158015610162573d6000803e3d6000fd5b50505050600260009054906101000a900473ffffffffffffffffffffffffffffffffffffffff1673ffffffffffffffffffffffffffffffffffffffff166340c10f1933674563918244f400006040518363ffffffff1660e01b81526004016101cb929190610333565b600060405180830381600087803b1580156101e557600080fd5b505af11580156101f9573d6000803e3d6000fd5b50505050600360009054906101000a900473ffffffffffffffffffffffffffffffffffffffff1673ffffffffffffffffffffffffffffffffffffffff166340c10f1933671bc16d674ec800006040518363ffffffff1660e01b815260040161026292919061030a565b600060405180830381600087803b15801561027c57600080fd5b505af1158015610290573d6000803e3d6000fd5b50505050565b61029f81610385565b82525050565b6102ae816103c1565b82525050565b6102bd816103d3565b82525050565b6102cc816103e5565b82525050565b6102db816103f7565b82525050565b60006040820190506102f66000830185610296565b61030360208301846102a5565b9392505050565b600060408201905061031f6000830185610296565b61032c60208301846102b4565b9392505050565b60006040820190506103486000830185610296565b61035560208301846102c3565b9392505050565b60006040820190506103716000830185610296565b61037e60208301846102d2565b9392505050565b600061039082610397565b9050919050565b600073ffffffffffffffffffffffffffffffffffffffff82169050919050565b6000819050919050565b60006103cc826103b7565b9050919050565b60006103de826103b7565b9050919050565b60006103f0826103b7565b9050919050565b6000610402826103b7565b905091905056fea2646970667358221220ff5174a18ccb51cd29d67b438b27b1c232d8b02fdb94d16d2a78851d579dd66f64736f6c63430008010033",
  "linkReferences": {},
  "deployedLinkReferences": {}
}