{
  "_format": "hh-sol-artifact-1",
  "contractName": "Wilderness",
  "sourceName": "contracts/Wilderness.sol",
  "abi": [
    {
      "inputs": [
        {
          "internalType": "address",
          "name": "AVATAR_ADDRESS",
          "type": "address"
        },
        {
          "internalType": "address",
          "name": "STONE_TOKEN_ADDRESS",
          "type": "address"
        },
        {
          "internalType": "address",
          "name": "STICK_TOKEN_ADDRESS",
          "type": "address"
        },
        {
          "internalType": "address",
          "name": "PLANT_TOKEN_ADDRESS",
          "type": "address"
        },
        {
          "internalType": "address",
          "name": "APPLE_TOKEN_ADDRESS",
          "type": "address"
        }
      ],
      "stateMutability": "nonpayable",
      "type": "constructor"
    },
    {
      "anonymous": false,
      "inputs": [
        {
          "indexed": false,
          "internalType": "address",
          "name": "owner",
          "type": "address"
        },
        {
          "indexed": false,
          "internalType": "uint256",
          "name": "stoneQty",
          "type": "uint256"
        },
        {
          "indexed": false,
          "internalType": "uint256",
          "name": "stickQty",
          "type": "uint256"
        },
        {
          "indexed": false,
          "internalType": "uint256",
          "name": "plantQty",
          "type": "uint256"
        },
        {
          "indexed": false,
          "internalType": "uint256",
          "name": "appleQty",
          "type": "uint256"
        }
      ],
      "name": "ForageComplete",
      "type": "event"
    },
    {
      "anonymous": false,
      "inputs": [
        {
          "indexed": false,
          "internalType": "address",
          "name": "owner",
          "type": "address"
        },
        {
          "indexed": false,
          "internalType": "uint256",
          "name": "tokenId",
          "type": "uint256"
        },
        {
          "indexed": false,
          "internalType": "uint256",
          "name": "startTime",
          "type": "uint256"
        },
        {
          "indexed": false,
          "internalType": "uint256",
          "name": "duration",
          "type": "uint256"
        }
      ],
      "name": "ForageStarted",
      "type": "event"
    },
    {
      "inputs": [
        {
          "internalType": "uint256",
          "name": "",
          "type": "uint256"
        }
      ],
      "name": "activeForagers",
      "outputs": [
        {
          "internalType": "uint256",
          "name": "duration",
          "type": "uint256"
        },
        {
          "internalType": "uint256",
          "name": "startTime",
          "type": "uint256"
        },
        {
          "internalType": "bool",
          "name": "collected",
          "type": "bool"
        }
      ],
      "stateMutability": "view",
      "type": "function"
    },
    {
      "inputs": [
        {
          "internalType": "address",
          "name": "",
          "type": "address"
        },
        {
          "internalType": "uint256",
          "name": "",
          "type": "uint256"
        }
      ],
      "name": "avatarOwners",
      "outputs": [
        {
          "internalType": "uint256",
          "name": "",
          "type": "uint256"
        }
      ],
      "stateMutability": "view",
      "type": "function"
    },
    {
      "inputs": [
        {
          "internalType": "uint256",
          "name": "tokenId",
          "type": "uint256"
        }
      ],
      "name": "completeForage",
      "outputs": [],
      "stateMutability": "nonpayable",
      "type": "function"
    },
    {
      "inputs": [
        {
          "internalType": "address",
          "name": "owner",
          "type": "address"
        }
      ],
      "name": "getOwnedAvatars",
      "outputs": [
        {
          "internalType": "uint256[]",
          "name": "",
          "type": "uint256[]"
        }
      ],
      "stateMutability": "view",
      "type": "function"
    },
    {
      "inputs": [
        {
          "internalType": "address",
          "name": "operator",
          "type": "address"
        },
        {
          "internalType": "address",
          "name": "from",
          "type": "address"
        },
        {
          "internalType": "uint256",
          "name": "tokenId",
          "type": "uint256"
        },
        {
          "internalType": "bytes",
          "name": "data",
          "type": "bytes"
        }
      ],
      "name": "onERC721Received",
      "outputs": [
        {
          "internalType": "bytes4",
          "name": "",
          "type": "bytes4"
        }
      ],
      "stateMutability": "pure",
      "type": "function"
    },
    {
      "inputs": [
        {
          "internalType": "uint256",
          "name": "tokenId",
          "type": "uint256"
        }
      ],
      "name": "startForage",
      "outputs": [],
      "stateMutability": "nonpayable",
      "type": "function"
    }
  ],
  "bytecode": "0x60806040523480156200001157600080fd5b50604051620014633803806200146383398181016040528101906200003791906200019d565b84600460006101000a81548173ffffffffffffffffffffffffffffffffffffffff021916908373ffffffffffffffffffffffffffffffffffffffff160217905550836000806101000a81548173ffffffffffffffffffffffffffffffffffffffff021916908373ffffffffffffffffffffffffffffffffffffffff16021790555082600160006101000a81548173ffffffffffffffffffffffffffffffffffffffff021916908373ffffffffffffffffffffffffffffffffffffffff16021790555081600260006101000a81548173ffffffffffffffffffffffffffffffffffffffff021916908373ffffffffffffffffffffffffffffffffffffffff16021790555080600360006101000a81548173ffffffffffffffffffffffffffffffffffffffff021916908373ffffffffffffffffffffffffffffffffffffffff16021790555050505050506200026d565b600081519050620001978162000253565b92915050565b600080600080600060a08688031215620001b657600080fd5b6000620001c68882890162000186565b9550506020620001d98882890162000186565b9450506040620001ec8882890162000186565b9350506060620001ff8882890162000186565b9250506080620002128882890162000186565b9150509295509295909350565b60006200022c8262000233565b9050919050565b600073ffffffffffffffffffffffffffffffffffffffff82169050919050565b6200025e816200021f565b81146200026a57600080fd5b50565b6111e6806200027d6000396000f3fe608060405234801561001057600080fd5b50600436106100625760003560e01c8063150b7a02146100675780632d47f6ff146100975780633c8d4c64146100b35780636cbcd776146100e3578063b8f7bf82146100ff578063ecd6647314610131575b600080fd5b610081600480360381019061007c9190610bcf565b610161565b60405161008e9190610ed5565b60405180910390f35b6100b160048036038101906100ac9190610c8b565b610176565b005b6100cd60048036038101906100c89190610c4f565b61031e565b6040516100da9190610f30565b60405180910390f35b6100fd60048036038101906100f89190610c8b565b61034f565b005b61011960048036038101906101149190610c8b565b610a64565b60405161012893929190610f4b565b60405180910390f35b61014b60048036038101906101469190610ba6565b610a9b565b6040516101589190610eb3565b60405180910390f35b600063150b7a0260e01b905095945050505050565b60006201d4c09050600460009054906101000a900473ffffffffffffffffffffffffffffffffffffffff1673ffffffffffffffffffffffffffffffffffffffff166342842e0e3330856040518463ffffffff1660e01b81526004016101dd93929190610dbb565b600060405180830381600087803b1580156101f757600080fd5b505af115801561020b573d6000803e3d6000fd5b5050505060405180606001604052808281526020014281526020016000151581525060066000848152602001908152602001600020600082015181600001556020820151816001015560408201518160020160006101000a81548160ff021916908315150217905550905050600560003373ffffffffffffffffffffffffffffffffffffffff1673ffffffffffffffffffffffffffffffffffffffff1681526020019081526020016000208290806001815401808255809150506001900390600052602060002001600090919091909150557f6da3912c59f456dd1ff03259f05237e9de96e99f8854bb1cf4953afdeb71227e338342846040516103129493929190610e1b565b60405180910390a15050565b6005602052816000526040600020818154811061033a57600080fd5b90600052602060002001600091509150505481565b600660008281526020019081526020016000206000015460066000838152602001908152602001600020600101546103879190610fcc565b42116103c8576040517f08c379a00000000000000000000000000000000000000000000000000000000081526004016103bf90610f10565b60405180910390fd5b6000806000905060005b600560003373ffffffffffffffffffffffffffffffffffffffff1673ffffffffffffffffffffffffffffffffffffffff168152602001908152602001600020805490508160ff1610156104ca5783600560003373ffffffffffffffffffffffffffffffffffffffff1673ffffffffffffffffffffffffffffffffffffffff1681526020019081526020016000208260ff168154811061049a577f4e487b7100000000000000000000000000000000000000000000000000000000600052603260045260246000fd5b906000526020600020015414156104b757809250600191506104ca565b80806104c2906110d7565b9150506103d2565b508061050b576040517f08c379a000000000000000000000000000000000000000000000000000000000815260040161050290610ef0565b60405180910390fd5b600460009054906101000a900473ffffffffffffffffffffffffffffffffffffffff1673ffffffffffffffffffffffffffffffffffffffff166342842e0e3033866040518463ffffffff1660e01b815260040161056a93929190610dbb565b600060405180830381600087803b15801561058457600080fd5b505af1158015610598573d6000803e3d6000fd5b505050506000676f05b59d3b20000090506000678ac7230489e8000090506000674563918244f4000090506000671bc16d674ec80000905060008054906101000a900473ffffffffffffffffffffffffffffffffffffffff1673ffffffffffffffffffffffffffffffffffffffff166340c10f1933866040518363ffffffff1660e01b815260040161062b929190610df2565b600060405180830381600087803b15801561064557600080fd5b505af1158015610659573d6000803e3d6000fd5b50505050600160009054906101000a900473ffffffffffffffffffffffffffffffffffffffff1673ffffffffffffffffffffffffffffffffffffffff166340c10f1933856040518363ffffffff1660e01b81526004016106ba929190610df2565b600060405180830381600087803b1580156106d457600080fd5b505af11580156106e8573d6000803e3d6000fd5b50505050600260009054906101000a900473ffffffffffffffffffffffffffffffffffffffff1673ffffffffffffffffffffffffffffffffffffffff166340c10f1933846040518363ffffffff1660e01b8152600401610749929190610df2565b600060405180830381600087803b15801561076357600080fd5b505af1158015610777573d6000803e3d6000fd5b50505050600360009054906101000a900473ffffffffffffffffffffffffffffffffffffffff1673ffffffffffffffffffffffffffffffffffffffff166340c10f1933836040518363ffffffff1660e01b81526004016107d8929190610df2565b600060405180830381600087803b1580156107f257600080fd5b505af1158015610806573d6000803e3d6000fd5b5050505060016006600089815260200190815260200160002060020160006101000a81548160ff021916908315150217905550600560003373ffffffffffffffffffffffffffffffffffffffff1673ffffffffffffffffffffffffffffffffffffffff1681526020019081526020016000206001600560003373ffffffffffffffffffffffffffffffffffffffff1673ffffffffffffffffffffffffffffffffffffffff168152602001908152602001600020805490506108c79190611022565b815481106108fe577f4e487b7100000000000000000000000000000000000000000000000000000000600052603260045260246000fd5b9060005260206000200154600560003373ffffffffffffffffffffffffffffffffffffffff1673ffffffffffffffffffffffffffffffffffffffff1681526020019081526020016000208760ff1681548110610983577f4e487b7100000000000000000000000000000000000000000000000000000000600052603260045260246000fd5b9060005260206000200181905550600560003373ffffffffffffffffffffffffffffffffffffffff1673ffffffffffffffffffffffffffffffffffffffff168152602001908152602001600020805480610a06577f4e487b7100000000000000000000000000000000000000000000000000000000600052603160045260246000fd5b600190038181906000526020600020016000905590557f2c5079c713747fcb1bfc16ecc944921071d1a766ca167c1e35b95197d57f53c23385858585604051610a53959493929190610e60565b60405180910390a150505050505050565b60066020528060005260406000206000915090508060000154908060010154908060020160009054906101000a900460ff16905083565b6060600560008373ffffffffffffffffffffffffffffffffffffffff1673ffffffffffffffffffffffffffffffffffffffff168152602001908152602001600020805480602002602001604051908101604052809291908181526020018280548015610b2657602002820191906000526020600020905b815481526020019060010190808311610b12575b50505050509050919050565b600081359050610b4181611182565b92915050565b60008083601f840112610b5957600080fd5b8235905067ffffffffffffffff811115610b7257600080fd5b602083019150836001820283011115610b8a57600080fd5b9250929050565b600081359050610ba081611199565b92915050565b600060208284031215610bb857600080fd5b6000610bc684828501610b32565b91505092915050565b600080600080600060808688031215610be757600080fd5b6000610bf588828901610b32565b9550506020610c0688828901610b32565b9450506040610c1788828901610b91565b935050606086013567ffffffffffffffff811115610c3457600080fd5b610c4088828901610b47565b92509250509295509295909350565b60008060408385031215610c6257600080fd5b6000610c7085828601610b32565b9250506020610c8185828601610b91565b9150509250929050565b600060208284031215610c9d57600080fd5b6000610cab84828501610b91565b91505092915050565b6000610cc08383610d9d565b60208301905092915050565b610cd581611056565b82525050565b6000610ce682610f92565b610cf08185610faa565b9350610cfb83610f82565b8060005b83811015610d2c578151610d138882610cb4565b9750610d1e83610f9d565b925050600181019050610cff565b5085935050505092915050565b610d4281611068565b82525050565b610d5181611074565b82525050565b6000610d64601a83610fbb565b9150610d6f82611130565b602082019050919050565b6000610d87601983610fbb565b9150610d9282611159565b602082019050919050565b610da6816110c0565b82525050565b610db5816110c0565b82525050565b6000606082019050610dd06000830186610ccc565b610ddd6020830185610ccc565b610dea6040830184610dac565b949350505050565b6000604082019050610e076000830185610ccc565b610e146020830184610dac565b9392505050565b6000608082019050610e306000830187610ccc565b610e3d6020830186610dac565b610e4a6040830185610dac565b610e576060830184610dac565b95945050505050565b600060a082019050610e756000830188610ccc565b610e826020830187610dac565b610e8f6040830186610dac565b610e9c6060830185610dac565b610ea96080830184610dac565b9695505050505050565b60006020820190508181036000830152610ecd8184610cdb565b905092915050565b6000602082019050610eea6000830184610d48565b92915050565b60006020820190508181036000830152610f0981610d57565b9050919050565b60006020820190508181036000830152610f2981610d7a565b9050919050565b6000602082019050610f456000830184610dac565b92915050565b6000606082019050610f606000830186610dac565b610f6d6020830185610dac565b610f7a6040830184610d39565b949350505050565b6000819050602082019050919050565b600081519050919050565b6000602082019050919050565b600082825260208201905092915050565b600082825260208201905092915050565b6000610fd7826110c0565b9150610fe2836110c0565b9250827fffffffffffffffffffffffffffffffffffffffffffffffffffffffffffffffff0382111561101757611016611101565b5b828201905092915050565b600061102d826110c0565b9150611038836110c0565b92508282101561104b5761104a611101565b5b828203905092915050565b6000611061826110a0565b9050919050565b60008115159050919050565b60007fffffffff0000000000000000000000000000000000000000000000000000000082169050919050565b600073ffffffffffffffffffffffffffffffffffffffff82169050919050565b6000819050919050565b600060ff82169050919050565b60006110e2826110ca565b915060ff8214156110f6576110f5611101565b5b600182019050919050565b7f4e487b7100000000000000000000000000000000000000000000000000000000600052601160045260246000fd5b7f4d757374206f776e2041766174617220746f20636f6c6c656374000000000000600082015250565b7f466f726167696e67206e6f742079657420636f6d706c65746500000000000000600082015250565b61118b81611056565b811461119657600080fd5b50565b6111a2816110c0565b81146111ad57600080fd5b5056fea2646970667358221220d69dc967b9e807581b05a1e3b9959a70c82b40c3d42cfc17b7e2cfbf40a898a364736f6c63430008010033",
  "linkReferences": {},
  "deployedLinkReferences": {}
}