{
  "_format": "hh-sol-artifact-1",
  "contractName": "MockResourceToken",
  "sourceName": "contracts/MockResourceToken.sol",
  "abi": [
    {
      "inputs": [
        {
          "internalType": "string",
          "name": "name",
          "type": "string"
        },
        {
          "internalType": "string",
          "name": "symbol",
          "type": "string"
        }
      ],
      "stateMutability": "nonpayable",
      "type": "constructor"
    },
    {
      "anonymous": false,
      "inputs": [
        {
          "indexed": true,
          "internalType": "address",
          "name": "owner",
          "type": "address"
        },
        {
          "indexed": true,
          "internalType": "address",
          "name": "spender",
          "type": "address"
        },
        {
          "indexed": false,
          "internalType": "uint256",
          "name": "value",
          "type": "uint256"
        }
      ],
      "name": "Approval",
      "type": "event"
    },
    {
      "anonymous": false,
      "inputs": [
        {
          "indexed": true,
          "internalType": "bytes32",
          "name": "role",
          "type": "bytes32"
        },
        {
          "indexed": true,
          "internalType": "bytes32",
          "name": "previousAdminRole",
          "type": "bytes32"
        },
        {
          "indexed": true,
          "internalType": "bytes32",
          "name": "newAdminRole",
          "type": "bytes32"
        }
      ],
      "name": "RoleAdminChanged",
      "type": "event"
    },
    {
      "anonymous": false,
      "inputs": [
        {
          "indexed": true,
          "internalType": "bytes32",
          "name": "role",
          "type": "bytes32"
        },
        {
          "indexed": true,
          "internalType": "address",
          "name": "account",
          "type": "address"
        },
        {
          "indexed": true,
          "internalType": "address",
          "name": "sender",
          "type": "address"
        }
      ],
      "name": "RoleGranted",
      "type": "event"
    },
    {
      "anonymous": false,
      "inputs": [
        {
          "indexed": true,
          "internalType": "bytes32",
          "name": "role",
          "type": "bytes32"
        },
        {
          "indexed": true,
          "internalType": "address",
          "name": "account",
          "type": "address"
        },
        {
          "indexed": true,
          "internalType": "address",
          "name": "sender",
          "type": "address"
        }
      ],
      "name": "RoleRevoked",
      "type": "event"
    },
    {
      "anonymous": false,
      "inputs": [
        {
          "indexed": true,
          "internalType": "address",
          "name": "from",
          "type": "address"
        },
        {
          "indexed": true,
          "internalType": "address",
          "name": "to",
          "type": "address"
        },
        {
          "indexed": false,
          "internalType": "uint256",
          "name": "value",
          "type": "uint256"
        }
      ],
      "name": "Transfer",
      "type": "event"
    },
    {
      "inputs": [],
      "name": "DEFAULT_ADMIN_ROLE",
      "outputs": [
        {
          "internalType": "bytes32",
          "name": "",
          "type": "bytes32"
        }
      ],
      "stateMutability": "view",
      "type": "function"
    },
    {
      "inputs": [],
      "name": "MINTER_ROLE",
      "outputs": [
        {
          "internalType": "bytes32",
          "name": "",
          "type": "bytes32"
        }
      ],
      "stateMutability": "view",
      "type": "function"
    },
    {
      "inputs": [
        {
          "internalType": "address",
          "name": "owner",
          "type": "address"
        },
        {
          "internalType": "address",
          "name": "spender",
          "type": "address"
        }
      ],
      "name": "allowance",
      "outputs": [
        {
          "internalType": "uint256",
          "name": "",
          "type": "uint256"
        }
      ],
      "stateMutability": "view",
      "type": "function"
    },
    {
      "inputs": [
        {
          "internalType": "address",
          "name": "spender",
          "type": "address"
        },
        {
          "internalType": "uint256",
          "name": "amount",
          "type": "uint256"
        }
      ],
      "name": "approve",
      "outputs": [
        {
          "internalType": "bool",
          "name": "",
          "type": "bool"
        }
      ],
      "stateMutability": "nonpayable",
      "type": "function"
    },
    {
      "inputs": [
        {
          "internalType": "address",
          "name": "account",
          "type": "address"
        }
      ],
      "name": "balanceOf",
      "outputs": [
        {
          "internalType": "uint256",
          "name": "",
          "type": "uint256"
        }
      ],
      "stateMutability": "view",
      "type": "function"
    },
    {
      "inputs": [],
      "name": "decimals",
      "outputs": [
        {
          "internalType": "uint8",
          "name": "",
          "type": "uint8"
        }
      ],
      "stateMutability": "view",
      "type": "function"
    },
    {
      "inputs": [
        {
          "internalType": "address",
          "name": "spender",
          "type": "address"
        },
        {
          "internalType": "uint256",
          "name": "subtractedValue",
          "type": "uint256"
        }
      ],
      "name": "decreaseAllowance",
      "outputs": [
        {
          "internalType": "bool",
          "name": "",
          "type": "bool"
        }
      ],
      "stateMutability": "nonpayable",
      "type": "function"
    },
    {
      "inputs": [
        {
          "internalType": "bytes32",
          "name": "role",
          "type": "bytes32"
        }
      ],
      "name": "getRoleAdmin",
      "outputs": [
        {
          "internalType": "bytes32",
          "name": "",
          "type": "bytes32"
        }
      ],
      "stateMutability": "view",
      "type": "function"
    },
    {
      "inputs": [
        {
          "internalType": "bytes32",
          "name": "role",
          "type": "bytes32"
        },
        {
          "internalType": "address",
          "name": "account",
          "type": "address"
        }
      ],
      "name": "grantRole",
      "outputs": [],
      "stateMutability": "nonpayable",
      "type": "function"
    },
    {
      "inputs": [
        {
          "internalType": "bytes32",
          "name": "role",
          "type": "bytes32"
        },
        {
          "internalType": "address",
          "name": "account",
          "type": "address"
        }
      ],
      "name": "hasRole",
      "outputs": [
        {
          "internalType": "bool",
          "name": "",
          "type": "bool"
        }
      ],
      "stateMutability": "view",
      "type": "function"
    },
    {
      "inputs": [
        {
          "internalType": "address",
          "name": "spender",
          "type": "address"
        },
        {
          "internalType": "uint256",
          "name": "addedValue",
          "type": "uint256"
        }
      ],
      "name": "increaseAllowance",
      "outputs": [
        {
          "internalType": "bool",
          "name": "",
          "type": "bool"
        }
      ],
      "stateMutability": "nonpayable",
      "type": "function"
    },
    {
      "inputs": [
        {
          "internalType": "address",
          "name": "to",
          "type": "address"
        },
        {
          "internalType": "uint256",
          "name": "amount",
          "type": "uint256"
        }
      ],
      "name": "mint",
      "outputs": [],
      "stateMutability": "nonpayable",
      "type": "function"
    },
    {
      "inputs": [],
      "name": "name",
      "outputs": [
        {
          "internalType": "string",
          "name": "",
          "type": "string"
        }
      ],
      "stateMutability": "view",
      "type": "function"
    },
    {
      "inputs": [
        {
          "internalType": "bytes32",
          "name": "role",
          "type": "bytes32"
        },
        {
          "internalType": "address",
          "name": "account",
          "type": "address"
        }
      ],
      "name": "renounceRole",
      "outputs": [],
      "stateMutability": "nonpayable",
      "type": "function"
    },
    {
      "inputs": [
        {
          "internalType": "bytes32",
          "name": "role",
          "type": "bytes32"
        },
        {
          "internalType": "address",
          "name": "account",
          "type": "address"
        }
      ],
      "name": "revokeRole",
      "outputs": [],
      "stateMutability": "nonpayable",
      "type": "function"
    },
    {
      "inputs": [
        {
          "internalType": "bytes4",
          "name": "interfaceId",
          "type": "bytes4"
        }
      ],
      "name": "supportsInterface",
      "outputs": [
        {
          "internalType": "bool",
          "name": "",
          "type": "bool"
        }
      ],
      "stateMutability": "view",
      "type": "function"
    },
    {
      "inputs": [],
      "name": "symbol",
      "outputs": [
        {
          "internalType": "string",
          "name": "",
          "type": "string"
        }
      ],
      "stateMutability": "view",
      "type": "function"
    },
    {
      "inputs": [],
      "name": "totalSupply",
      "outputs": [
        {
          "internalType": "uint256",
          "name": "",
          "type": "uint256"
        }
      ],
      "stateMutability": "view",
      "type": "function"
    },
    {
      "inputs": [
        {
          "internalType": "address",
          "name": "to",
          "type": "address"
        },
        {
          "internalType": "uint256",
          "name": "amount",
          "type": "uint256"
        }
      ],
      "name": "transfer",
      "outputs": [
        {
          "internalType": "bool",
          "name": "",
          "type": "bool"
        }
      ],
      "stateMutability": "nonpayable",
      "type": "function"
    },
    {
      "inputs": [
        {
          "internalType": "address",
          "name": "from",
          "type": "address"
        },
        {
          "internalType": "address",
          "name": "to",
          "type": "address"
        },
        {
          "internalType": "uint256",
          "name": "amount",
          "type": "uint256"
        }
      ],
      "name": "transferFrom",
      "outputs": [
        {
          "internalType": "bool",
          "name": "",
          "type": "bool"
        }
      ],
      "stateMutability": "nonpayable",
      "type": "function"
    }
  ],
  "bytecode": "0x60806040523480156200001157600080fd5b50604051620026f0380380620026f0833981810160405281019062000037919062000343565b818181600390805190602001906200005192919062000221565b5080600490805190602001906200006a92919062000221565b505050620000826000801b33620000bc60201b60201c565b620000b47f9f2df0fed2c77648de5860a4cc508cd0818c85b8b8a1ab4ceeef8d981c8956a633620000bc60201b60201c565b505062000526565b620000ce8282620001ae60201b60201c565b620001aa5760016005600084815260200190815260200160002060000160008373ffffffffffffffffffffffffffffffffffffffff1673ffffffffffffffffffffffffffffffffffffffff16815260200190815260200160002060006101000a81548160ff0219169083151502179055506200014f6200021960201b60201c565b73ffffffffffffffffffffffffffffffffffffffff168173ffffffffffffffffffffffffffffffffffffffff16837f2f8788117e7eff1d82e926ec794901d17c78024a50270940304540a733656f0d60405160405180910390a45b5050565b60006005600084815260200190815260200160002060000160008373ffffffffffffffffffffffffffffffffffffffff1673ffffffffffffffffffffffffffffffffffffffff16815260200190815260200160002060009054906101000a900460ff16905092915050565b600033905090565b8280546200022f906200044b565b90600052602060002090601f0160209004810192826200025357600085556200029f565b82601f106200026e57805160ff19168380011785556200029f565b828001600101855582156200029f579182015b828111156200029e57825182559160200191906001019062000281565b5b509050620002ae9190620002b2565b5090565b5b80821115620002cd576000816000905550600101620002b3565b5090565b6000620002e8620002e284620003df565b620003b6565b9050828152602081018484840111156200030157600080fd5b6200030e84828562000415565b509392505050565b600082601f8301126200032857600080fd5b81516200033a848260208601620002d1565b91505092915050565b600080604083850312156200035757600080fd5b600083015167ffffffffffffffff8111156200037257600080fd5b620003808582860162000316565b925050602083015167ffffffffffffffff8111156200039e57600080fd5b620003ac8582860162000316565b9150509250929050565b6000620003c2620003d5565b9050620003d0828262000481565b919050565b6000604051905090565b600067ffffffffffffffff821115620003fd57620003fc620004e6565b5b620004088262000515565b9050602081019050919050565b60005b838110156200043557808201518184015260208101905062000418565b8381111562000445576000848401525b50505050565b600060028204905060018216806200046457607f821691505b602082108114156200047b576200047a620004b7565b5b50919050565b6200048c8262000515565b810181811067ffffffffffffffff82111715620004ae57620004ad620004e6565b5b80604052505050565b7f4e487b7100000000000000000000000000000000000000000000000000000000600052602260045260246000fd5b7f4e487b7100000000000000000000000000000000000000000000000000000000600052604160045260246000fd5b6000601f19601f8301169050919050565b6121ba80620005366000396000f3fe608060405234801561001057600080fd5b506004361061012c5760003560e01c806340c10f19116100ad578063a457c2d711610071578063a457c2d71461036b578063a9059cbb1461039b578063d5391393146103cb578063d547741f146103e9578063dd62ed3e146104055761012c565b806340c10f19146102b357806370a08231146102cf57806391d14854146102ff57806395d89b411461032f578063a217fddf1461034d5761012c565b8063248a9ca3116100f4578063248a9ca3146101fd5780632f2ff15d1461022d578063313ce5671461024957806336568abe1461026757806339509351146102835761012c565b806301ffc9a71461013157806306fdde0314610161578063095ea7b31461017f57806318160ddd146101af57806323b872dd146101cd575b600080fd5b61014b60048036038101906101469190611757565b610435565b6040516101589190611a04565b60405180910390f35b6101696104af565b6040516101769190611a3a565b60405180910390f35b610199600480360381019061019491906116b6565b610541565b6040516101a69190611a04565b60405180910390f35b6101b7610564565b6040516101c49190611b9c565b60405180910390f35b6101e760048036038101906101e29190611667565b61056e565b6040516101f49190611a04565b60405180910390f35b610217600480360381019061021291906116f2565b61059d565b6040516102249190611a1f565b60405180910390f35b6102476004803603810190610242919061171b565b6105bd565b005b6102516105de565b60405161025e9190611bb7565b60405180910390f35b610281600480360381019061027c919061171b565b6105e7565b005b61029d600480360381019061029891906116b6565b61066a565b6040516102aa9190611a04565b60405180910390f35b6102cd60048036038101906102c891906116b6565b6106a1565b005b6102e960048036038101906102e49190611602565b6106da565b6040516102f69190611b9c565b60405180910390f35b6103196004803603810190610314919061171b565b610722565b6040516103269190611a04565b60405180910390f35b61033761078d565b6040516103449190611a3a565b60405180910390f35b61035561081f565b6040516103629190611a1f565b60405180910390f35b610385600480360381019061038091906116b6565b610826565b6040516103929190611a04565b60405180910390f35b6103b560048036038101906103b091906116b6565b61089d565b6040516103c29190611a04565b60405180910390f35b6103d36108c0565b6040516103e09190611a1f565b60405180910390f35b61040360048036038101906103fe919061171b565b6108e4565b005b61041f600480360381019061041a919061162b565b610905565b60405161042c9190611b9c565b60405180910390f35b60007f7965db0b000000000000000000000000000000000000000000000000000000007bffffffffffffffffffffffffffffffffffffffffffffffffffffffff1916827bffffffffffffffffffffffffffffffffffffffffffffffffffffffff191614806104a857506104a78261098c565b5b9050919050565b6060600380546104be90611d91565b80601f01602080910402602001604051908101604052809291908181526020018280546104ea90611d91565b80156105375780601f1061050c57610100808354040283529160200191610537565b820191906000526020600020905b81548152906001019060200180831161051a57829003601f168201915b5050505050905090565b60008061054c6109f6565b90506105598185856109fe565b600191505092915050565b6000600254905090565b6000806105796109f6565b9050610586858285610bc9565b610591858585610c55565b60019150509392505050565b600060056000838152602001908152602001600020600101549050919050565b6105c68261059d565b6105cf81610ed6565b6105d98383610eea565b505050565b60006012905090565b6105ef6109f6565b73ffffffffffffffffffffffffffffffffffffffff168173ffffffffffffffffffffffffffffffffffffffff161461065c576040517f08c379a000000000000000000000000000000000000000000000000000000000815260040161065390611b5c565b60405180910390fd5b6106668282610fcb565b5050565b6000806106756109f6565b90506106968185856106878589610905565b6106919190611bf9565b6109fe565b600191505092915050565b7f9f2df0fed2c77648de5860a4cc508cd0818c85b8b8a1ab4ceeef8d981c8956a66106cb81610ed6565b6106d583836110ad565b505050565b60008060008373ffffffffffffffffffffffffffffffffffffffff1673ffffffffffffffffffffffffffffffffffffffff168152602001908152602001600020549050919050565b60006005600084815260200190815260200160002060000160008373ffffffffffffffffffffffffffffffffffffffff1673ffffffffffffffffffffffffffffffffffffffff16815260200190815260200160002060009054906101000a900460ff16905092915050565b60606004805461079c90611d91565b80601f01602080910402602001604051908101604052809291908181526020018280546107c890611d91565b80156108155780601f106107ea57610100808354040283529160200191610815565b820191906000526020600020905b8154815290600101906020018083116107f857829003601f168201915b5050505050905090565b6000801b81565b6000806108316109f6565b9050600061083f8286610905565b905083811015610884576040517f08c379a000000000000000000000000000000000000000000000000000000000815260040161087b90611b3c565b60405180910390fd5b61089182868684036109fe565b60019250505092915050565b6000806108a86109f6565b90506108b5818585610c55565b600191505092915050565b7f9f2df0fed2c77648de5860a4cc508cd0818c85b8b8a1ab4ceeef8d981c8956a681565b6108ed8261059d565b6108f681610ed6565b6109008383610fcb565b505050565b6000600160008473ffffffffffffffffffffffffffffffffffffffff1673ffffffffffffffffffffffffffffffffffffffff16815260200190815260200160002060008373ffffffffffffffffffffffffffffffffffffffff1673ffffffffffffffffffffffffffffffffffffffff16815260200190815260200160002054905092915050565b60007f01ffc9a7000000000000000000000000000000000000000000000000000000007bffffffffffffffffffffffffffffffffffffffffffffffffffffffff1916827bffffffffffffffffffffffffffffffffffffffffffffffffffffffff1916149050919050565b600033905090565b600073ffffffffffffffffffffffffffffffffffffffff168373ffffffffffffffffffffffffffffffffffffffff161415610a6e576040517f08c379a0000000000000000000000000000000000000000000000000000000008152600401610a6590611b1c565b60405180910390fd5b600073ffffffffffffffffffffffffffffffffffffffff168273ffffffffffffffffffffffffffffffffffffffff161415610ade576040517f08c379a0000000000000000000000000000000000000000000000000000000008152600401610ad590611a9c565b60405180910390fd5b80600160008573ffffffffffffffffffffffffffffffffffffffff1673ffffffffffffffffffffffffffffffffffffffff16815260200190815260200160002060008473ffffffffffffffffffffffffffffffffffffffff1673ffffffffffffffffffffffffffffffffffffffff168152602001908152602001600020819055508173ffffffffffffffffffffffffffffffffffffffff168373ffffffffffffffffffffffffffffffffffffffff167f8c5be1e5ebec7d5bd14f71427d1e84f3dd0314c0f7b2291e5b200ac8c7c3b92583604051610bbc9190611b9c565b60405180910390a3505050565b6000610bd58484610905565b90507fffffffffffffffffffffffffffffffffffffffffffffffffffffffffffffffff8114610c4f5781811015610c41576040517f08c379a0000000000000000000000000000000000000000000000000000000008152600401610c3890611abc565b60405180910390fd5b610c4e84848484036109fe565b5b50505050565b600073ffffffffffffffffffffffffffffffffffffffff168373ffffffffffffffffffffffffffffffffffffffff161415610cc5576040517f08c379a0000000000000000000000000000000000000000000000000000000008152600401610cbc90611afc565b60405180910390fd5b600073ffffffffffffffffffffffffffffffffffffffff168273ffffffffffffffffffffffffffffffffffffffff161415610d35576040517f08c379a0000000000000000000000000000000000000000000000000000000008152600401610d2c90611a7c565b60405180910390fd5b610d4083838361120d565b60008060008573ffffffffffffffffffffffffffffffffffffffff1673ffffffffffffffffffffffffffffffffffffffff16815260200190815260200160002054905081811015610dc6576040517f08c379a0000000000000000000000000000000000000000000000000000000008152600401610dbd90611adc565b60405180910390fd5b8181036000808673ffffffffffffffffffffffffffffffffffffffff1673ffffffffffffffffffffffffffffffffffffffff16815260200190815260200160002081905550816000808573ffffffffffffffffffffffffffffffffffffffff1673ffffffffffffffffffffffffffffffffffffffff1681526020019081526020016000206000828254610e599190611bf9565b925050819055508273ffffffffffffffffffffffffffffffffffffffff168473ffffffffffffffffffffffffffffffffffffffff167fddf252ad1be2c89b69c2b068fc378daa952ba7f163c4a11628f55a4df523b3ef84604051610ebd9190611b9c565b60405180910390a3610ed0848484611212565b50505050565b610ee781610ee26109f6565b611217565b50565b610ef48282610722565b610fc75760016005600084815260200190815260200160002060000160008373ffffffffffffffffffffffffffffffffffffffff1673ffffffffffffffffffffffffffffffffffffffff16815260200190815260200160002060006101000a81548160ff021916908315150217905550610f6c6109f6565b73ffffffffffffffffffffffffffffffffffffffff168173ffffffffffffffffffffffffffffffffffffffff16837f2f8788117e7eff1d82e926ec794901d17c78024a50270940304540a733656f0d60405160405180910390a45b5050565b610fd58282610722565b156110a95760006005600084815260200190815260200160002060000160008373ffffffffffffffffffffffffffffffffffffffff1673ffffffffffffffffffffffffffffffffffffffff16815260200190815260200160002060006101000a81548160ff02191690831515021790555061104e6109f6565b73ffffffffffffffffffffffffffffffffffffffff168173ffffffffffffffffffffffffffffffffffffffff16837ff6391f5c32d9c69d2a47ea670b442974b53935d1edc7fd64eb21e047a839171b60405160405180910390a45b5050565b600073ffffffffffffffffffffffffffffffffffffffff168273ffffffffffffffffffffffffffffffffffffffff16141561111d576040517f08c379a000000000000000000000000000000000000000000000000000000000815260040161111490611b7c565b60405180910390fd5b6111296000838361120d565b806002600082825461113b9190611bf9565b92505081905550806000808473ffffffffffffffffffffffffffffffffffffffff1673ffffffffffffffffffffffffffffffffffffffff16815260200190815260200160002060008282546111909190611bf9565b925050819055508173ffffffffffffffffffffffffffffffffffffffff16600073ffffffffffffffffffffffffffffffffffffffff167fddf252ad1be2c89b69c2b068fc378daa952ba7f163c4a11628f55a4df523b3ef836040516111f59190611b9c565b60405180910390a361120960008383611212565b5050565b505050565b505050565b6112218282610722565b6112b0576112468173ffffffffffffffffffffffffffffffffffffffff1660146112b4565b6112548360001c60206112b4565b6040516020016112659291906119ca565b6040516020818303038152906040526040517f08c379a00000000000000000000000000000000000000000000000000000000081526004016112a79190611a3a565b60405180910390fd5b5050565b6060600060028360026112c79190611c4f565b6112d19190611bf9565b67ffffffffffffffff811115611310577f4e487b7100000000000000000000000000000000000000000000000000000000600052604160045260246000fd5b6040519080825280601f01601f1916602001820160405280156113425781602001600182028036833780820191505090505b5090507f3000000000000000000000000000000000000000000000000000000000000000816000815181106113a0577f4e487b7100000000000000000000000000000000000000000000000000000000600052603260045260246000fd5b60200101907effffffffffffffffffffffffffffffffffffffffffffffffffffffffffffff1916908160001a9053507f78000000000000000000000000000000000000000000000000000000000000008160018151811061142a577f4e487b7100000000000000000000000000000000000000000000000000000000600052603260045260246000fd5b60200101907effffffffffffffffffffffffffffffffffffffffffffffffffffffffffffff1916908160001a9053506000600184600261146a9190611c4f565b6114749190611bf9565b90505b6001811115611560577f3031323334353637383961626364656600000000000000000000000000000000600f8616601081106114dc577f4e487b7100000000000000000000000000000000000000000000000000000000600052603260045260246000fd5b1a60f81b828281518110611519577f4e487b7100000000000000000000000000000000000000000000000000000000600052603260045260246000fd5b60200101907effffffffffffffffffffffffffffffffffffffffffffffffffffffffffffff1916908160001a905350600485901c94508061155990611d67565b9050611477565b50600084146115a4576040517f08c379a000000000000000000000000000000000000000000000000000000000815260040161159b90611a5c565b60405180910390fd5b8091505092915050565b6000813590506115bd81612128565b92915050565b6000813590506115d28161213f565b92915050565b6000813590506115e781612156565b92915050565b6000813590506115fc8161216d565b92915050565b60006020828403121561161457600080fd5b6000611622848285016115ae565b91505092915050565b6000806040838503121561163e57600080fd5b600061164c858286016115ae565b925050602061165d858286016115ae565b9150509250929050565b60008060006060848603121561167c57600080fd5b600061168a868287016115ae565b935050602061169b868287016115ae565b92505060406116ac868287016115ed565b9150509250925092565b600080604083850312156116c957600080fd5b60006116d7858286016115ae565b92505060206116e8858286016115ed565b9150509250929050565b60006020828403121561170457600080fd5b6000611712848285016115c3565b91505092915050565b6000806040838503121561172e57600080fd5b600061173c858286016115c3565b925050602061174d858286016115ae565b9150509250929050565b60006020828403121561176957600080fd5b6000611777848285016115d8565b91505092915050565b61178981611cbb565b82525050565b61179881611cc7565b82525050565b60006117a982611bd2565b6117b38185611bdd565b93506117c3818560208601611d34565b6117cc81611e21565b840191505092915050565b60006117e282611bd2565b6117ec8185611bee565b93506117fc818560208601611d34565b80840191505092915050565b6000611815602083611bdd565b915061182082611e32565b602082019050919050565b6000611838602383611bdd565b915061184382611e5b565b604082019050919050565b600061185b602283611bdd565b915061186682611eaa565b604082019050919050565b600061187e601d83611bdd565b915061188982611ef9565b602082019050919050565b60006118a1602683611bdd565b91506118ac82611f22565b604082019050919050565b60006118c4602583611bdd565b91506118cf82611f71565b604082019050919050565b60006118e7602483611bdd565b91506118f282611fc0565b604082019050919050565b600061190a601783611bee565b91506119158261200f565b601782019050919050565b600061192d602583611bdd565b915061193882612038565b604082019050919050565b6000611950601183611bee565b915061195b82612087565b601182019050919050565b6000611973602f83611bdd565b915061197e826120b0565b604082019050919050565b6000611996601f83611bdd565b91506119a1826120ff565b602082019050919050565b6119b581611d1d565b82525050565b6119c481611d27565b82525050565b60006119d5826118fd565b91506119e182856117d7565b91506119ec82611943565b91506119f882846117d7565b91508190509392505050565b6000602082019050611a196000830184611780565b92915050565b6000602082019050611a34600083018461178f565b92915050565b60006020820190508181036000830152611a54818461179e565b905092915050565b60006020820190508181036000830152611a7581611808565b9050919050565b60006020820190508181036000830152611a958161182b565b9050919050565b60006020820190508181036000830152611ab58161184e565b9050919050565b60006020820190508181036000830152611ad581611871565b9050919050565b60006020820190508181036000830152611af581611894565b9050919050565b60006020820190508181036000830152611b15816118b7565b9050919050565b60006020820190508181036000830152611b35816118da565b9050919050565b60006020820190508181036000830152611b5581611920565b9050919050565b60006020820190508181036000830152611b7581611966565b9050919050565b60006020820190508181036000830152611b9581611989565b9050919050565b6000602082019050611bb160008301846119ac565b92915050565b6000602082019050611bcc60008301846119bb565b92915050565b600081519050919050565b600082825260208201905092915050565b600081905092915050565b6000611c0482611d1d565b9150611c0f83611d1d565b9250827fffffffffffffffffffffffffffffffffffffffffffffffffffffffffffffffff03821115611c4457611c43611dc3565b5b828201905092915050565b6000611c5a82611d1d565b9150611c6583611d1d565b9250817fffffffffffffffffffffffffffffffffffffffffffffffffffffffffffffffff0483118215151615611c9e57611c9d611dc3565b5b828202905092915050565b6000611cb482611cfd565b9050919050565b60008115159050919050565b6000819050919050565b60007fffffffff0000000000000000000000000000000000000000000000000000000082169050919050565b600073ffffffffffffffffffffffffffffffffffffffff82169050919050565b6000819050919050565b600060ff82169050919050565b60005b83811015611d52578082015181840152602081019050611d37565b83811115611d61576000848401525b50505050565b6000611d7282611d1d565b91506000821415611d8657611d85611dc3565b5b600182039050919050565b60006002820490506001821680611da957607f821691505b60208210811415611dbd57611dbc611df2565b5b50919050565b7f4e487b7100000000000000000000000000000000000000000000000000000000600052601160045260246000fd5b7f4e487b7100000000000000000000000000000000000000000000000000000000600052602260045260246000fd5b6000601f19601f8301169050919050565b7f537472696e67733a20686578206c656e67746820696e73756666696369656e74600082015250565b7f45524332303a207472616e7366657220746f20746865207a65726f206164647260008201527f6573730000000000000000000000000000000000000000000000000000000000602082015250565b7f45524332303a20617070726f766520746f20746865207a65726f20616464726560008201527f7373000000000000000000000000000000000000000000000000000000000000602082015250565b7f45524332303a20696e73756666696369656e7420616c6c6f77616e6365000000600082015250565b7f45524332303a207472616e7366657220616d6f756e742065786365656473206260008201527f616c616e63650000000000000000000000000000000000000000000000000000602082015250565b7f45524332303a207472616e736665722066726f6d20746865207a65726f20616460008201527f6472657373000000000000000000000000000000000000000000000000000000602082015250565b7f45524332303a20617070726f76652066726f6d20746865207a65726f2061646460008201527f7265737300000000000000000000000000000000000000000000000000000000602082015250565b7f416363657373436f6e74726f6c3a206163636f756e7420000000000000000000600082015250565b7f45524332303a2064656372656173656420616c6c6f77616e63652062656c6f7760008201527f207a65726f000000000000000000000000000000000000000000000000000000602082015250565b7f206973206d697373696e6720726f6c6520000000000000000000000000000000600082015250565b7f416363657373436f6e74726f6c3a2063616e206f6e6c792072656e6f756e636560008201527f20726f6c657320666f722073656c660000000000000000000000000000000000602082015250565b7f45524332303a206d696e7420746f20746865207a65726f206164647265737300600082015250565b61213181611ca9565b811461213c57600080fd5b50565b61214881611cc7565b811461215357600080fd5b50565b61215f81611cd1565b811461216a57600080fd5b50565b61217681611d1d565b811461218157600080fd5b5056fea2646970667358221220b191c5dd48b03ff023bac7a066d2893f6c4698cc7b0300a9a0917b6e64869f5464736f6c63430008010033",
  "linkReferences": {},
  "deployedLinkReferences": {}
}