{
  "_format": "hh-sol-artifact-1",
  "contractName": "Altar",
  "sourceName": "contracts/Altar.sol",
  "abi": [
    {
      "inputs": [
        {
          "internalType": "address",
          "name": "neonTokenAddress",
          "type": "address"
        }
      ],
      "stateMutability": "nonpayable",
      "type": "constructor"
    },
    {
      "anonymous": false,
      "inputs": [
        {
          "indexed": false,
          "internalType": "address",
          "name": "to",
          "type": "address"
        },
        {
          "indexed": false,
          "internalType": "uint256",
          "name": "qtyReceived",
          "type": "uint256"
        }
      ],
      "name": "PrayingComplete",
      "type": "event"
    },
    {
      "inputs": [],
      "name": "pray",
      "outputs": [],
      "stateMutability": "nonpayable",
      "type": "function"
    }
  ],
  "bytecode": "0x608060405234801561001057600080fd5b506040516102eb3803806102eb8339818101604052810190610032919061008d565b806000806101000a81548173ffffffffffffffffffffffffffffffffffffffff021916908373ffffffffffffffffffffffffffffffffffffffff160217905550506100ff565b600081519050610087816100e8565b92915050565b60006020828403121561009f57600080fd5b60006100ad84828501610078565b91505092915050565b60006100c1826100c8565b9050919050565b600073ffffffffffffffffffffffffffffffffffffffff82169050919050565b6100f1816100b6565b81146100fc57600080fd5b50565b6101dd8061010e6000396000f3fe608060405234801561001057600080fd5b506004361061002b5760003560e01c8063419905e514610030575b600080fd5b61003861003a565b005b60008054906101000a900473ffffffffffffffffffffffffffffffffffffffff1673ffffffffffffffffffffffffffffffffffffffff166340c10f1933670de0b6b3a76400006040518363ffffffff1660e01b815260040161009d929190610130565b600060405180830381600087803b1580156100b757600080fd5b505af11580156100cb573d6000803e3d6000fd5b505050507fd4bc23905d8222cc84911f31aeb1542ee8f9814ceebb6681d6ca053856ecd06633670de0b6b3a7640000604051610108929190610130565b60405180910390a1565b61011b81610159565b82525050565b61012a81610195565b82525050565b60006040820190506101456000830185610112565b6101526020830184610121565b9392505050565b60006101648261016b565b9050919050565b600073ffffffffffffffffffffffffffffffffffffffff82169050919050565b6000819050919050565b60006101a08261018b565b905091905056fea2646970667358221220d139b0516852fbf769e1f3493327970e01fb76dfaf93956eda037849aaab468664736f6c63430008000033",
  "linkReferences": {},
  "deployedLinkReferences": {}
}