{
  "_format": "hh-sol-artifact-1",
  "contractName": "Altar",
  "sourceName": "contracts/Altar.sol",
  "abi": [
    {
      "inputs": [
        {
          "internalType": "address",
          "name": "neonTokenAddress",
          "type": "address"
        }
      ],
      "stateMutability": "nonpayable",
      "type": "constructor"
    },
    {
      "inputs": [],
      "name": "pray",
      "outputs": [],
      "stateMutability": "nonpayable",
      "type": "function"
    }
  ],
  "bytecode": "0x608060405234801561001057600080fd5b506040516102a33803806102a38339818101604052810190610032919061008d565b806000806101000a81548173ffffffffffffffffffffffffffffffffffffffff021916908373ffffffffffffffffffffffffffffffffffffffff160217905550506100ff565b600081519050610087816100e8565b92915050565b60006020828403121561009f57600080fd5b60006100ad84828501610078565b91505092915050565b60006100c1826100c8565b9050919050565b600073ffffffffffffffffffffffffffffffffffffffff82169050919050565b6100f1816100b6565b81146100fc57600080fd5b50565b6101958061010e6000396000f3fe608060405234801561001057600080fd5b506004361061002b5760003560e01c8063419905e514610030575b600080fd5b61003861003a565b005b60008054906101000a900473ffffffffffffffffffffffffffffffffffffffff1673ffffffffffffffffffffffffffffffffffffffff166340c10f193360016040518363ffffffff1660e01b81526004016100969291906100e8565b600060405180830381600087803b1580156100b057600080fd5b505af11580156100c4573d6000803e3d6000fd5b50505050565b6100d381610111565b82525050565b6100e28161014d565b82525050565b60006040820190506100fd60008301856100ca565b61010a60208301846100d9565b9392505050565b600061011c82610123565b9050919050565b600073ffffffffffffffffffffffffffffffffffffffff82169050919050565b6000819050919050565b600061015882610143565b905091905056fea2646970667358221220dd62d7a9016c04e8ec39df82a02def1c4e2d164ab602ae8a9dd7b6a0d650b4da64736f6c63430008000033",
  "linkReferences": {},
  "deployedLinkReferences": {}
}